:020000040000FA
:0600000095EF1CF0120058
:0600080004EF08F01200F5
:060018000CEF08F01200DD
:0610000095EF1CF0120048
:021006001200D6
:0610080016EF08F01200D3
:061018001FEF08F01200BA
:02101E000100CF
:0C102000463900009E0000002700000080
:04102C00DACFE4FF34
:10103000E2CFDAFFE652E552E5CFDAFF1100D8CF72
:10104000E4FFE0CFE4FFE46EDACFE4FFE2CFDAFFC3
:10105000E652E552E5CFDAFFE550E5CFE0FFE5CF18
:10106000D8FF100005D8C8EC11F040D9FCD7120009
:101070000F0EC11202D878EF11F0D9CFE6FFE1CF01
:10108000D9FF050EE126010EF36E040EF3CFDBFF50
:10109000F00E936EB00E946E8B687E6A7F6AF19E3E
:1010A0007888788A788C788E0001D56BD66BD76B70
:1010B000D86BD96BDA6BDB6BDC6B00019E6B9F6BC3
:1010C000A06BA16B02016C6B6CC26BF26CC26AF21A
:1010D0006CC269F26F6B6FC26EF26FC26DF2020189
:1010E000686B68C267F268C266F268C265F268C27D
:1010F00064F268C263F268C262F268C261F200011F
:10110000C86BC8C0C7F0C8C0C6F0C8C0C5F0D46BB3
:10111000D4C0D3F0D4C0D2F0D4C0D1F0D4C0D0F079
:10112000D4C0CFF0D4C0CEF0D4C0CDF0C96BCA6B60
:10113000800ECB6FCC6FDE6ADD6ADECF14F0DDCFC0
:1011400015F0D890155004E6070E145C000E1558E3
:1011500057E2020EDB6A030EDB6A020EDBCF14F0ED
:10116000030EDBCF15F0D890155004E6030E145C87
:10117000000E155840E2DECF18F0DDCF19F0030E57
:101180001902F3CF19F01802F3CF18F0F450192612
:10119000020EDB501824166E030EDB501920176E5A
:1011A00016C0E6FF17C0E6FF2FEC1CF0E552E55233
:1011B000E66EDECF14F0DDCF15F0030E1502F3CF8F
:1011C00015F01402F3CF14F0F4501526B00E1426C7
:1011D000000E1522020EDB501424E96E030EDB50C4
:1011E0001520EA6EE552E750EF6E020EDB2A030E81
:1011F00001E3DB2AB2D7DF2A010E01E3DB2A9DD708
:101200000001B05169E0B00567E0020EB05D64E036
:10121000DE6ADD6ADECF14F0DDCF15F0D890155010
:1012200004E6070E145C000E155856E2020EDB6A47
:10123000030EDB6A020EDBCF14F0030EDBCF15F0DA
:10124000D890155004E6030E145C000E15583FE2CA
:10125000DECF14F0DDCF15F0030E1502F3CF15F03D
:101260001402F3CF14F0F4501526B00E1426000E1D
:101270001522020EDB501424E96E030EDB501520FC
:10128000EA6EEF6AE66ADECF16F0DDCF17F0030EE6
:101290001702F3CF17F01602F3CF16F0F45017260B
:1012A000020EDB501624146E030EDB501720156E51
:1012B00014C0E6FF15C0E6FF3EEC1CF0E552E55217
:1012C000E552020EDB2A030E01E3DB2AB3D7DF2A45
:1012D000010E01E3DB2A9ED7050EE15C02E2E16A22
:1012E000E552E16EE552E7CFD9FF1200D9CFE6FF14
:1012F000E1CFD9FF090EE126200E0001E76E60194B
:10130000E8AE02D0E73402D0E750605D03E36450FA
:10131000020B02E0EDEF10F08150200B200A01E0FB
:10132000010E800DF3CF1AF08150100B100A01E06E
:10133000010E400DF3CF19F08150200B200A01E07F
:10134000010E200DF3CF18F08150400B400A01E050
:10135000010E100DF3CF17F08250200B200A01E090
:10136000010E080DF3CF16F08250800B800A01E0C9
:10137000010E040DF3CF15F08150800B800A01E0BF
:10138000010EE824146E8250100B100A01E0010EC9
:101390001410151016101710181019101A1000013B
:1013A000A26F8250010B010A080DF3CF16F0825094
:1013B000020B020A01E0010E040DF3CF15F082507A
:1013C000040B040A01E0010EE824146E8150100B96
:1013D000100A01E0010E141015101610A36F020E72
:1013E000F36E040EF3CFDBFF050EDB6A0001DD6B4D
:1013F000DE6BDF6BE06BE16BE26BE36BE46BE56B89
:10140000E66BDE6ADD6ADECF14F0DDCF15F0D89032
:10141000155004E6070E145C000E155801E349D37D
:10142000DECF14F0DDCF15F0D890155004E6080E8D
:10143000145C000E155814E2010EDF5206E0DFCFF7
:10144000F3FFE846FE0BF306FCE10001A21502E003
:10145000010E01D0000EE76E060EE7CFDBFF1BD0BA
:10146000DECF14F0DDCF15F0080E145E000E155A15
:10147000010E14C0E7FFE75204E0E846FE0BE70662
:10148000FCE10001A31502E0010E01D0000EE76EA1
:10149000060EE7CFDBFFDECFE9FFDDCFEAFF030E6D
:1014A000EA02F3CFEAFFE902F3CFE9FFF450EA26BC
:1014B000B00EE926000EEA22EF50020A01E157D2EF
:1014C000030A01E105D2010A01E0EED2060EDB04B7
:1014D00001E0FDD1DECFE9FFDDCFEAFF030EEA0236
:1014E000F3CFEAFFE902F3CFE9FFF450EA26B00EAA
:1014F000E926000EEA22010EE926000EEA22EF504C
:1015000003E10001C581E3D1DECFE9FFDDCFEAFFD2
:10151000030EEA02F3CFEAFFE902F3CFE9FFF4504A
:10152000EA26B00EE926000EEA22010EE926000E98
:10153000EA22EF0403E10001C583C9D1DECFE9FF50
:10154000DDCFEAFF030EEA02F3CFEAFFE902F3CFB1
:10155000E9FFF450EA26B00EE926000EEA22010E59
:10156000E926000EEA22EF50020803E10001C585DA
:10157000AED1DECFE9FFDDCFEAFF030EEA02F3CF03
:10158000EAFFE902F3CFE9FFF450EA26B00EE926BC
:10159000000EEA22010EE926000EEA22EF500308AF
:1015A0001DE10001010EDD6FE35117E1DECFE9FF20
:1015B000DDCFEAFF030EEA02F3CFEAFFE902F3CF41
:1015C000E9FFF450EA26B00EE926000EEA22020EE8
:1015D000E926000EEA22EFCFE3F079D1DECFE9FF72
:1015E000DDCFEAFF030EEA02F3CFEAFFE902F3CF11
:1015F000E9FFF450EA26B00EE926000EEA22010EB9
:10160000E926000EEA22EF5004081DE10001010E58
:10161000DE6FE45117E1DECFE9FFDDCFEAFF030E15
:10162000EA02F3CFEAFFE902F3CFE9FFF450EA263A
:10163000B00EE926000EEA22020EE926000EEA228A
:10164000EFCFE4F044D1DECFE9FFDDCFEAFF030EB8
:10165000EA02F3CFEAFFE902F3CFE9FFF450EA260A
:10166000B00EE926000EEA22010EE926000EEA225B
:10167000EF5005081DE10001010EDF6FE55117E194
:10168000DECFE9FFDDCFEAFF030EEA02F3CFEAFF88
:10169000E902F3CFE9FFF450EA26B00EE926000E86
:1016A000EA22020EE926000EEA22EFCFE5F00FD182
:1016B000DECFE9FFDDCFEAFF030EEA02F3CFEAFF58
:1016C000E902F3CFE9FFF450EA26B00EE926000E56
:1016D000EA22010EE926000EEA22EF5006081DE17B
:1016E0000001010EE06FE65117E1DECFE9FFDDCF2B
:1016F000EAFF030EEA02F3CFEAFFE902F3CFE9FFC4
:10170000F450EA26B00EE926000EEA22020EE9267F
:10171000000EEA22EFCFE6F0DAD0DECFE9FFDDCF30
:10172000EAFF030EEA02F3CFEAFFE902F3CFE9FF93
:10173000F450EA26B00EE926000EEA22010EE92650
:10174000000EEA22EF5007081BE10001010EE16FD5
:10175000DECFE9FFDDCFEAFF030EEA02F3CFEAFFB7
:10176000E902F3CFE9FFF450EA26B00EE926000EB5
:10177000EA22020EE926000EEA22EFCFE7F0A7D018
:10178000DECFE9FFDDCFEAFF030EEA02F3CFEAFF87
:10179000E902F3CFE9FFF450EA26B00EE926000E85
:1017A000EA22010EE926000EEA22EF5008081BE1AA
:1017B0000001010EE26FDECFE9FFDDCFEAFF030E8D
:1017C000EA02F3CFEAFFE902F3CFE9FFF450EA2699
:1017D000B00EE926000EEA22020EE926000EEA22E9
:1017E000EFCFE8F074D0DECFE9FFDDCFEAFF030EE4
:1017F000EA02F3CFEAFFE902F3CFE9FFF450EA2669
:10180000B00EE926000EEA22010EE926000EEA22B9
:10181000EF5009085CE1DECFE9FFDDCFEAFF030E00
:10182000EA02F3CFEAFFE902F3CFE9FFF450EA2638
:10183000B00EE926000EEA22020EE926000EEA2288
:10184000EFCFE3F0DECFE9FFDDCFEAFF030EEA02E0
:10185000F3CFEAFFE902F3CFE9FFF450EA26B00E36
:10186000E926000EEA22020EE926000EEA22EFCF58
:10187000E4F0DECFE9FFDDCFEAFF030EEA02F3CFAB
:10188000EAFFE902F3CFE9FFF450EA26B00EE926B9
:10189000000EEA22020EE926000EEA22EFCFE5F062
:1018A000DECFE9FFDDCFEAFF030EEA02F3CFEAFF66
:1018B000E902F3CFE9FFF450EA26B00EE926000E64
:1018C000EA22020EE926000EEA22EFCFE6F0ECD083
:1018D000060EDB044BE1D950040FE96EDACFEAFFC4
:1018E000080EEE1801E1ED5041E0DECFE9FFDDCF5B
:1018F000EAFF030EEA02F3CFEAFFE902F3CFE9FFC2
:10190000F450EA26B00EE926000EEA22020EE9267D
:10191000000EEA22EF500001CD13DECFE9FFDDCF4C
:10192000EAFF030EEA02F3CFEAFFE902F3CFE9FF91
:10193000F450EA26B00EE926000EEA22010EE9264E
:10194000000EEA22EF50E66E040EDBCFE9FF050E33
:10195000DBCFEAFFCD0EE926000EEA22E552E75082
:10196000EF6E040EDB2A050E01E3DB2A9DD0060E86
:10197000DB0401E098D0DECFE9FFDDCFEAFF030E04
:10198000EA02F3CFEAFFE902F3CFE9FFF450EA26D7
:10199000B00EE926000EEA22010EE926000EEA2228
:1019A000EF50010B02E00001CC6BDECFE9FFDDCF91
:1019B000EAFF030EEA02F3CFEAFFE902F3CFE9FF01
:1019C000F450EA26B00EE926000EEA22010EE926BE
:1019D000000EEA22EF50020B02E00001CC69DECFDC
:1019E000E9FFDDCFEAFF030EEA02F3CFEAFFE902E7
:1019F000F3CFE9FFF450EA26B00EE926000EEA2202
:101A0000010EE926000EEA22EF50040B02E000016D
:101A1000CB6BDECFE9FFDDCFEAFF030EEA02F3CFA7
:101A2000EAFFE902F3CFE9FFF450EA26B00EE92617
:101A3000000EEA22010EE926000EEA22EF50080B02
:101A400002E00001CB69DECFE9FFDDCFEAFF030E44
:101A5000EA02F3CFEAFFE902F3CFE9FFF450EA2606
:101A6000B00EE926000EEA22020EE926000EEA2256
:101A7000EF500001C913DECFE9FFDDCFEAFF030E0F
:101A8000EA02F3CFEAFFE902F3CFE9FFF450EA26D6
:101A9000B00EE926000EEA22010EE926000EEA2227
:101AA000EF380F0BCA1300D0DF2A010E01E3DB2A47
:101AB000AAD40001D551D61102E1000E08D0D5C03C
:101AC000E9FFD6C0EAFFEF50800B01E0010E0009EC
:101AD00001E073D1DD0538E1E351146E156A14504D
:101AE0000001A4271550A523A53504E2A45132080E
:101AF000000EA55528E2A4C014F0A5C015F0320EC2
:101B00000D6E0E6A14C008F015C009F08DEC1BF0C4
:101B100008C014F009C015F00868096814C00DF079
:101B200015C00EF0B3EC1BF006C0C7F0320E0D6E00
:101B30000E6AA4C008F0A5C009F08DEC1BF004C02B
:101B4000A4F005C0A5F003D00001A46BA56B0001B3
:101B5000DE052CE1E451146E156A14500001A6272D
:101B60001550A723A73504E2A6513208000EA75549
:101B70001CE2320E146E156AA6C008F0A7C009F068
:101B800014C00DF015C00EF08DEC1BF008C0C7F0AE
:101B9000320E0D6E0E6AA6C008F0A7C009F08DECDB
:101BA0001BF004C0A6F005C0A7F003D00001A66B8F
:101BB000A76B0001DF0538E1E551146E156A14507A
:101BC0000001A8271550A923A93504E2A85132081D
:101BD000000EA95528E2A8C014F0A9C015F0320ED5
:101BE0000D6E0E6A14C008F015C009F08DEC1BF0E4
:101BF00008C014F009C015F00868096814C00DF099
:101C000015C00EF0B3EC1BF006C0C6F0320E0D6E20
:101C10000E6AA8C008F0A9C009F08DEC1BF004C042
:101C2000A8F005C0A9F003D00001A86BA96B0001C2
:101C3000E0052CE1E651146E156A14500001AA2744
:101C40001550AB23AB3504E2AA513208000EAB5558
:101C50001CE2320E146E156AAAC008F0ABC009F07F
:101C600014C00DF015C00EF08DEC1BF008C0C6F0CE
:101C7000320E0D6E0E6AAAC008F0ABC009F08DECF2
:101C80001BF004C0AAF005C0ABF003D00001AA6BA2
:101C9000AB6B0001E1052EE1E751146E156A14509B
:101CA0000001AC271550AD23AD3504E2AC51E80876
:101CB000030EAD551EE2E80E146E030E156EACC099
:101CC00008F0ADC009F014C00DF015C00EF08DEC99
:101CD0001BF008C0C8F0E80E0D6E030E0E6EACC00F
:101CE00008F0ADC009F08DEC1BF004C0ACF005C0ED
:101CF000ADF003D00001AC6BAD6B0001E2053AE141
:101D0000E851146E156A14500001AE271550AF2328
:101D1000AF3504E2AE51E808030EAF552AE2AEC07B
:101D200014F0AFC015F0E80E0D6E030E0E6E14C069
:101D300008F015C009F08DEC1BF008C014F009C0C4
:101D400015F00868096814C00DF015C00EF0B3EC6A
:101D50001BF006C0C8F0E80E0D6E030E0E6EAEC08E
:101D600008F0AFC009F08DEC1BF004C0AEF005C068
:101D7000AFF003D00001AE6BAF6BC5C06DF2C6C053
:101D80006EF2C7C06FF2C8C070F20001C56BC66BBF
:101D9000C76BC86B040EE66E6D0EE66E020EE66E45
:101DA000010EE66EE66E22EC19F0146E050EE15E91
:101DB0001450F3CFD5F0F4CFD6F00001D951DA1199
:101DC00002E1000E08D0D9C0E9FFDAC0EAFFEF5007
:101DD000800B01E0010E000931E1CDC061F2CEC0FF
:101DE00062F2CFC063F2D0C064F2D1C065F2D2C05B
:101DF00066F2D3C067F2D4C068F2D46BD4C0D3F01B
:101E0000D4C0D2F0D4C0D1F0D4C0D0F0D4C0CFF080
:101E1000D4C0CDF0080EE66E610EE66E020EE66EE0
:101E2000010EE66E030EE66E22EC19F0146E050E3E
:101E3000E15E1450F3CFD9F0F4CFDAF00001D751BE
:101E4000D81102E1000E08D0D7C0E9FFD8C0EAFFE0
:101E5000EF50800B01E0010E000921E1C9C069F2D9
:101E6000CAC06AF2CBC06BF2CCC06CF2C96BCA6B51
:101E7000800ECB6FCC6F040EE66E690EE66E020E1E
:101E8000E66E010EE66E020EE66E22EC19F0146E9E
:101E9000050EE15E1450F3CFD7F0F4CFD8F0000177
:101EA0009E519F1102E1000E08D09EC0E9FF9FC025
:101EB000EAFFEF50800B01E0010E000901E08DD137
:101EC00002017951370A01E1D6D0B60A01E1A5D065
:101ED000010A01E06FD1DE6ADD6ADECF14F0DDCFEA
:101EE00015F0D890155004E6070E145C000E155836
:101EF00001E392D0020EDB6A030EDB6A020EDBCF37
:101F000014F0030EDBCF15F0D890155004E6030E45
:101F1000145C000E155801E37AD0DECF16F0DDCF49
:101F200017F0030E1702F3CF17F01602F3CF16F0D7
:101F3000F4501726020EDB501624E96E030EDB5018
:101F40001720EA6E010EE926000EEA22790EE92634
:101F5000020EEA22EF50E66EDECF14F0DDCF15F070
:101F6000030E1502F3CF15F01402F3CF14F0F45062
:101F70001526B00E1426000E1522020EDB50142476
:101F8000E96E030EDB501520EA6EE552E750EF6E66
:101F9000DECF14F0DDCF15F0030E1502F3CF15F0F0
:101FA0001402F3CF14F0F4501526B00E1426000ED0
:101FB0001522020EDB501424E96E030EDB501520AF
:101FC000EA6EEF50E66EDECF18F0DDCF19F0030EAB
:101FD0001902F3CF19F01802F3CF18F0F4501926B4
:101FE000020EDB501824166E030EDB501920176EFC
:101FF00016C0E6FF17C0E6FF3EEC1CF0E552E552C6
:10200000E552020EDB2A030E01E3DB2A77D7DF2A33
:10201000010E01E3DB2A61D7CDD0810EB96FA2C0DA
:10202000BAF20F0E0001A3150201BB6F0001A0510F
:10203000A11102E1000E08D0A0C0E9FFA1C0EAFF93
:10204000EF50800B01E0010E000914E1400EE66E36
:10205000B90EE66E020EE66E010EE66E040EE66E38
:1020600022EC19F0146E050EE15E1450F3CFA0F0CF
:10207000F4CFA1F09FD00001A051A11102E1000E08
:1020800008D0A0C0E9FFA1C0EAFFEF50800B01E03B
:10209000010E000901E08DD00201370EB96FDE6A32
:1020A000DD6ADECF14F0DDCF15F0D890155004E6D0
:1020B000070E145C000E155858E2020EDB6A030E80
:1020C000DB6A020EDBCF14F0030EDBCF15F0D890E5
:1020D000155004E6030E145C000E155841E2DECFE5
:1020E00016F0DDCF17F0030E1702F3CF17F016022C
:1020F000F3CF16F0F4501726B00E1626000E172256
:10210000020EDB501624E96E030EDB501720EA6E38
:10211000EF50E66EDECF14F0DDCF15F0030E1502A2
:10212000F3CF15F01402F3CF14F0F4501526020E7D
:10213000DB501424E96E030EDB501520EA6E010E0D
:10214000E926000EEA22B90EE926020EEA22E5523D
:10215000E750EF6E020EDB2A030E01E3DB2AB1D754
:10216000DF2A010E01E3DB2A9CD70001A051A11157
:1021700002E1000E08D0A0C0E9FFA1C0EAFFEF50C5
:10218000800B01E0010E000914E1400EE66EB90E6D
:10219000E66E020EE66E010EE66E040EE66E22ECB0
:1021A00019F0146E050EE15E1450F3CFA0F0F4CFD9
:1021B000A1F000D0400EE66E790EE66E020EE66EDD
:1021C000E66A040EE66E22EC19F0146E050EE15E6E
:1021D0001450F3CF9EF0F4CF9FF0090EE15C02E2C1
:1021E000E16AE552E16EE552E7CFD9FF1200120035
:1021F000120012001200CEEF1AF012001E0EE66E50
:10220000010EE66E7CEC18F0E552E5521E0EE66E0D
:10221000020EE66E7CEC18F0E552E5521E0EE66EFC
:10222000030EE66E7CEC18F0E552E5521E0EE66EEB
:10223000040EE66E7CEC18F0E552E5521200648460
:102240000001080EE96F070EEA6FE907000EEA5B6E
:10225000E951EA11FAE164941200D9CFE6FFE1CF27
:10226000D9FFFD0EDBCF08F0FE0EDBCF09F0720EBA
:10227000081801E1095033E0E868081802E17F0E10
:1022800009182BE0740E081801E1095024E0750EBE
:10229000081801E109501DE0730E081801E109500A
:1022A00016E0030E081801E109500FE0020E0818AD
:1022B00001E1095008E0010E081801E1095001E0B0
:1022C00010D09CDF0FD099DF0DD095DF0BD091DFC0
:1022D00009D08DDF07D08CDF05D08CDF03D0000064
:1022E00001D000D0010E00D0E552E7CFD9FF120097
:1022F000D9CFE6FFE1CFD9FFE6520F015F6B626AEB
:10230000160E616E9F0E5B6F7B0E606E648C5C6B55
:10231000040EE66EE66AE66A540EE66E0F0EE66E90
:1023200055EC1CF0146E050EE15E1450649CDF6ADF
:10233000DF50146E156A140E145C000E155810E26E
:10234000DF50040DF3CFE9FFF4CFEAFF000EE926DA
:10235000020EEA22EE6AEE6AEE6AEE6ADF2AE8D739
:102360000F01160E536F62A602D06296FCD70001D1
:102370007F6B846B856B866B6498080E716F020EA1
:10238000726F616B606BE552E552E7CFD9FF1200C7
:10239000D9CFE6FFE1CFD9FFE6520001605117E146
:1023A00006D0646A606A0001606BA194AAD0646A76
:1023B000606A160E616E0F019F0E5B6F7B0E606E82
:1023C00064B602D06486FCD70001010E606F600520
:1023D00008E164BA06D0626A606A60806088020EB2
:1023E000606F6250040B05E06050040B02E06294E1
:1023F000B9D864A202D0A19484D06250010B12E03B
:102400006050010B0FE074DF0001040E606F0201E9
:10241000500E026F020E036F080E016F006B8C0EE0
:10242000001362906250100B05E06050100B02E048
:1024300087D862986250400B13E06050400B10E068
:10244000010EE66EE66A000EE66EE66A730EE66E52
:10245000E66A2DEC11F0146E060EE15E1450629CDB
:102460006250200B04E06050200B01E04FD8625016
:10247000020B14E06050020B11E0010EE66EE66AFA
:10248000000EE66EE66AE6687F0EE66E2DEC11F051
:10249000146E060EE15E14500F015F6B040E000116
:1024A000E76E6019E8AE02D0E73402D0E750605D15
:1024B00002E2A19426D060A623D0DF6A040EDF5C7E
:1024C0001FE262A61AD063CF8CF06296780E0001EC
:1024D0008C1502E15CD810D0000EE66EE66A8C0E18
:1024E000E66E000EE66E720EE66EE66A2DEC11F0F8
:1024F000146E060EE15E145001D002D0DF2ADED742
:10250000A194E552E552E7CFD9FF12000F0153A184
:1025100015D063C0E9FF64C0EAFFEF5080080DE109
:1025200071C0E9FF72C0EAFFEF50840806E163C0A2
:10253000E9FF64C0EAFF8C0EEF6E5391629A1200BD
:10254000608462986482000EE66EE66AE66EE66A71
:10255000750EE66EE66A2DEC11F0146E060EE15E65
:1025600014501200000EE66EE66AE66EE66A740E1D
:10257000E66EE66A2DEC11F0146E060EE15E145064
:102580006492609462A402D06294FCD71200D9CF06
:10259000E6FFE1CFD9FFE652FD0E00018C155AE1AE
:1025A0007E0E8C15E8407F0B040DF3CF63F0F4CF63
:1025B00064F0000E6327020E642363C065F064C0FC
:1025C00066F0657563C0E9FF64C0EAFFEF503C0B3D
:1025D000E842E8420D083CE163C0E9FF64C0EAFF5D
:1025E000020EE926000EEA22EECF14F0EFCF15F02E
:1025F000580E141802E1020E151828E163C0E9FF15
:1026000064C0EAFF020EE926000EEA22500EEE6ECA
:10261000020EED6EDF6ADF50146E156A080E145C50
:10262000000E155813E2DF50EA6A580FE96E020EE9
:10263000EA22EF50E66EDF50EA6A500FE96E020EB2
:10264000EA22E552E750EF6EDF2AE5D70DD801D038
:102650002ED805D0FD0E8C15040801E14ED8E552A8
:10266000E552E7CFD9FF120071C0E9FF72C0EAFF5F
:10267000EF50800B05E071C0E9FF72C0EAFFEF6A1E
:1026800000017B6B7C6B806B816B7F6BB9D8000E1C
:10269000E66EE66AE66EE66A030EE66EE66A2DEC24
:1026A00011F0146E060EE15E1450ABEF15F0020E41
:1026B00000017C5D02E1AFDB1FD06FD800018D51BE
:1026C0001AE165C0E9FF66C0EAFFEE52080EEF6E40
:1026D00065C0E9FF66C0EAFF020EE926000EEA22A5
:1026E000500EEE6E020EED6E65C0E9FF66C0EAFFA9
:1026F0008C0EEF6E01D08D6B1200D9CFE6FFE1CFCB
:10270000D9FFE65271C0E9FF72C0EAFFEF50400BFB
:1027100001E0010EDF6E00017175080E605D0DE1D4
:1027200052C25CFF0F015C51000804E20001100E70
:10273000606F03D00001040E606F7C0528E171C05A
:10274000E9FF72C0EAFF020EE926000EEA22580EE7
:10275000EE6E020EED6ED4DA020E00017B5D07E133
:1027600071C0E9FF72C0EAFF840EEF6E0FD0DF5038
:1027700007E171C0E9FF72C0EAFFC80EEF6E06D034
:1027800071C0E9FF72C0EAFF880EEF6E01D005D874
:10279000E552E552E7CFD9FF1200D9CFE6FFE1CFEE
:1027A000D9FF020EE12600017C6B71C0E9FF72C007
:1027B000EAFFEF6A040E7119146E72C015F014C0AE
:1027C000DEFF15C0DDFFDECFE9FFDDCFEAFFEF6AF8
:1027D00084AF0CD08751881107E005D088C0FAFF7C
:1027E00000018751F96EFADF0001849F020EE15C5F
:1027F00002E2E16AE552E16EE552E7CFD9FF12004D
:1028000002015051600BE842E842E842E842E842E7
:10281000000901E058D051510C0A54E00B0A43E082
:102820000C0A35E0010A26E00B0A22E0020A20E049
:10283000030A1CE0080A10E0010A0CE00F0A08E095
:10284000030A01E03FD000017F8F080E606F3BD08C
:10285000C7D839D07EDB37D00001610E7D6F000E06
:102860007E6F7F81010E806F7F8F2DD013D92BD08B
:102870002BD829D0545100017D6F7E6B620E7D27CD
:10288000000E7E237F81010E806F7F8F1CD00001A0
:102890007F8F02015451EA6A620FE96E000EEA224C
:1028A00052C2EFFF10D0000EE66EE66AE66EE66AF0
:1028B000020EE66EE66A2DEC11F0146E060EE15E75
:1028C000145001D000D01200D9CFE6FFE1CFD9FFDC
:1028D000040EE1260201520510E150511F0B0009C0
:1028E0000CE100017F8F030E0201515D04E1000144
:1028F000010E8B6F02D000018B6B0201525166E119
:1029000050511F0B020862E154510F0B00095EE0A9
:1029100000017F8F020154BF10D054510F0BE96E9C
:10292000EA6AD890E936EA36670EE926000EEA220E
:10293000EECFDEFFEDCFDDFF0FD054510F0BE96E70
:10294000EA6AD890E936EA36710EE926000EEA22E4
:10295000EECFDEFFEDCFDDFF030E515D07E1DECFF1
:10296000E9FFDDCFEAFF840EEF6E30D054510F0B3C
:10297000156A530F146E0F0E1522020E14C0DBFFE2
:10298000030E15C0DBFF020EDBCFE9FF030EDBCF2A
:10299000EAFFEF9054AF0DD0DECFE9FFDDCFEAFFC5
:1029A000EF6ADF74DECFE9FFDDCFEAFF400EEF6EA6
:1029B0000DD0DECFE9FFDDCFEAFF880EEF6EDF74CA
:1029C000DECFE9FFDDCFEAFFC80EEF6E040EE15C5B
:1029D00002E2E16AE552E16EE552E7CFD9FF12006B
:1029E000800E0201505D55E10001C00E7F6F0201B3
:1029F0005351030A2EE0010A0EE0030A03E000012E
:102A00007F6B47D00001E60E7D6F330E7E6F120E96
:102A1000806F816B3ED05251F66EF76AD890F636D1
:102A2000F736930EF626350EF7220900F5CF7DF026
:102A30000A00F5CF7EF0020E0001F76A7D25F66EE2
:102A40007E51F7220900F5CF80F00A00F5CF81F022
:102A500020D0030E525D1AE25251F66EF76AD890FA
:102A6000F636F736950EF626350EF7220900F5CF25
:102A70007DF00A00F5CF7EF07DC0F6FF7EC0F7FF47
:102A80000800F5500001806F816B02D000017F6B60
:102A900000D01200D9CFE6FFE1CFD9FF020EE12628
:102AA0000201586B596B50511F0B020A12E0030AC6
:102AB0000DE0010A01E03BD000017F8F0201588147
:102AC00000018B0502E10201588331D000017F8FA4
:102AD0002ED000017F8F020154BF10D054510F0B34
:102AE000E96EEA6AD890E936EA36670EE926000E02
:102AF000EA22EECFDEFFEDCFDDFF0FD054510F0BFA
:102B0000E96EEA6AD890E936EA36710EE926000ED7
:102B1000EA22EECFDEFFEDCFDDFFDECFE9FFDDCF36
:102B2000EAFFEF50040B02E0010E586F00D00001E5
:102B30007FAF07D0580E7D6F020E7E6F7F81020E31
:102B4000806F020EE15C02E2E16AE552E16EE5525D
:102B5000E7CFD9FF1200649800017FBF4AD084AF4D
:102B600028D0020E7C6F71C0E9FF72C0EAFFEE52FE
:102B7000EF6A71C0E9FF72C0EAFFC80EEF6E65C070
:102B8000E9FF66C0EAFFEE52080EEF6E65C0E9FF8E
:102B900066C0EAFF020EE926000EEA22580EEE6E2B
:102BA000020EED6E65C0E9FF66C0EAFFC80EEF6E6B
:102BB0001FD065C0E9FF66C0EAFFEE52080EEF6E57
:102BC00065C0E9FF66C0EAFF020EE926000EEA22B0
:102BD000500EEE6E020EED6E65C0E9FF66C0EAFFB4
:102BE0008C0EEF6E71C0E9FF72C0EAFF840EEF6ECB
:102BF00086D084BF84D0020150AF59D000018051EB
:102C00000201565D000181510201575904E256C28A
:102C100080F057C281F074D80001010E7C6F65C04E
:102C2000E9FF66C0EAFFEE52080EEF6E65C0E9FFED
:102C300066C0EAFF020EE926000EEA22500EEE6E92
:102C4000020EED6E65C0E9FF66C0EAFF800EEF6E12
:102C50008D6B63C0E9FF64C0EAFFEE52080EEF6EB1
:102C600063C0E9FF64C0EAFF020EE926000EEA2213
:102C7000500EEE6E020EED6E63C0E9FF64C0EAFF17
:102C8000840EEF6E010E8D6F71C0E9FF72C0EAFF16
:102C9000020EE926000EEA22580EEE6E020EED6ECE
:102CA00071C0E9FF72C0EAFFC80EEF6E28D00001C4
:102CB000020E7C6F71C0E9FF72C0EAFFEE52EF6A4C
:102CC00071C0E9FF72C0EAFFC80EEF6E65C0E9FF90
:102CD00066C0EAFFEE52080EEF6E65C0E9FF66C0FF
:102CE000EAFF020EE926000EEA22580EEE6E020EF0
:102CF000ED6E65C0E9FF66C0EAFFC80EEF6E120018
:102D0000D9CFE6FFE1CFD9FF020EE1260001080E80
:102D1000805D000E81590EE280C0DEFF81C0DDFFC4
:102D20007B5103E1010E7B6F04D07B0502E1020EB3
:102D30007B6F03D0080EDE6EDD6A71C0E9FF72C0E2
:102D4000EAFFEF9271C0E9FF72C0EAFFEF9071C035
:102D5000E9FF72C0EAFF010EDB50EF1271C0E9FF1C
:102D600072C0EAFFEE52DFCFEFFF000EDB50805F54
:102D7000010EDB50815B580E896F020E8A6F7FB1A6
:102D800021D0D9CFE9FFDACFEAFFEE50ED1019E0FC
:102D90007DC0F6FF7EC0F7FF7D2B000E7E2308006E
:102DA000F550E66E89C0E9FF8AC0EAFF892B000E64
:102DB0008A23E552E750EF6EDF06010E01E2DB06E3
:102DC000E0D71FD0D9CFE9FFDACFEAFFEE50ED1000
:102DD00018E07DC0E9FF7EC0EAFF7D2B000E7E2358
:102DE000EF50E66E89C0E9FF8AC0EAFF892B000E2A
:102DF0008A23E552E750EF6EDF06010E01E2DB06A3
:102E0000E1D7020EE15C02E2E16AE552E16EE552D1
:102E1000E7CFD9FF1200D9CFE6FFE1CFD9FF020EED
:102E2000E12663C0E9FF64C0EAFFEE52EFCFDFFFA7
:102E3000DFCF14F014500001855D000E865903E2C7
:102E400085C0DFFF09D0DF50146E156A1450855D10
:102E5000856F15508659866F010EDB6ADF50F36E61
:102E6000010EDBCFF4FFF350F45C16E2010EDB50F1
:102E7000EA6A580FE96E020EEA22EF50E66E82C04F
:102E8000E9FF83C0EAFF822B000E8323E552E7505F
:102E9000EF6E010EDB2AE2D7000ED8808555000EBA
:102EA000865528E265C0E9FF66C0EAFFEE52080ECB
:102EB000EF6E65C0E9FF66C0EAFF020EE926000E6C
:102EC000EA22580EEE6E020EED6E63C0E9FF64C09A
:102ED000EAFFEF50400B07E165C0E9FF66C0EAFF7B
:102EE000C80EEF6E06D065C0E9FF66C0EAFF880E27
:102EF000EF6E25D065C0E9FF66C0EAFFEE52080E0E
:102F0000EF6E65C0E9FF66C0EAFF020EE926000E1B
:102F1000EA22500EEE6E020EED6E65C0E9FF66C04D
:102F2000EAFF840EEF6E8751881107E005D088C054
:102F3000FAFF00018751F96EFADF0001849F020E4B
:102F4000E15C02E2E16AE552E16EE552E7CFD9FFCA
:102F50001200D9CFE6FFE1CFD9FFE65200017F8F03
:102F6000040EE66EE66AE66A540EE66E0F0EE66E34
:102F700055EC1CF0146E050EE15E1450DF6ADF5054
:102F8000146E156A140E145C000E155810E2DF5012
:102F9000040DF3CFE9FFF4CFEAFF000EE926020E9D
:102FA000EA22EE6AEE6AEE6AEE6ADF2AE8D7648CFD
:102FB000010EE66EE66AE66A620EE66E000EE66EE8
:102FC00055EC1CF0146E050EE15E1450649C00017B
:102FD000080E716F020E726F000E636F020E646F47
:102FE00063C065F064C066F052C261F0615103E1F4
:102FF000100E606F12D0200E606F010EE66EE66A52
:10300000610EE66E000EE66E010EE66EE66A2DECCF
:1030100011F0146E060EE15E1450E552E552E7CF52
:10302000D9FF1200D9CFE6FFE1CFD9FF020EE1268A
:10303000000EDE6E020EDD6EFD0EDB50E824166E15
:10304000FE0EDB50040DF3501624040DF350146EE5
:10305000156A020E0F0B05E0D89015321432E806FF
:10306000FBE1D89014361536D89014361536D9CFE2
:10307000E9FFDACFEAFF1450EE261550ED22DECF3D
:10308000E9FFDDCFEAFFEF9EFD0EDB500FE1FE0E04
:10309000EA6ADB34FE0BEA36E96E670EE926000EBB
:1030A000EA22DECFEEFFDDCFEDFF0ED0FE0EEA6AA4
:1030B000DB34FE0BEA36E96E710EE926000EEA22D9
:1030C000DECFEEFFDDCFEDFFDECFE9FFDDCFEAFFA4
:1030D000EF9CDECFE9FFDDCFEAFF040EE926000E0C
:1030E000EA22EF8C020EE15C02E2E16AE552E16E57
:1030F000E552E7CFD9FF1200D9CFE6FFE1CFD9FFE4
:10310000020EE126FE0EDB50156A530F146E0F0EF1
:10311000152214C0DEFF15C0DDFFDECFE9FFDDCFD5
:10312000EAFFFD0EDBCFEFFFDBA407D0E66AFE0E61
:10313000DBCFE6FF77DFE552E552FD0EDBA208D0DC
:10314000010EE66EFE0EDBCFE6FF6CDFE552E552C8
:10315000020EE15C02E2E16AE552E16EE552E7CF80
:10316000D9FF1200D9CFE6FFE1CFD9FF020EE12649
:10317000FE0EDB5020E165C0E9FF66C0EAFFEE52BB
:10318000080EEF6E65C0E9FF66C0EAFF020EE92691
:10319000000EEA22500EEE6E020EED6E65C0E9FFE3
:1031A00066C0EAFF8C0EEF6E71C0E9FF72C0EAFFE5
:1031B000840EEF6E3DD0FD0EDB50E824166EFE0E41
:1031C000DB50040DF3501624040DF3CF14F0F4CFAC
:1031D00015F0000E1426020E152214C0DEFF15C0D5
:1031E000DDFF840E146EDECFE9FFDDCFEAFF145061
:1031F000EF12FD0EDB50E824166EFE0EDB50040DC0
:10320000F3501624010F040DF3CF14F0F4CF15F092
:10321000000E1426020E152214C0DEFF15C0DDFFBD
:10322000840E146EDECFE9FFDDCFEAFF1450EF12FB
:10323000020EE15C02E2E16AE552E16EE552E7CF9F
:10324000D9FF1200D9CFE6FFE1CFD9FF020EE12668
:10325000FD0EDB500FE0FE0EEA6ADB34FE0BEA36B1
:10326000E96E710EE926000EEA22EECFDEFFEDCF09
:10327000DDFF0ED0FE0EEA6ADB34FE0BEA36E96EA5
:10328000670EE926000EEA22EECFDEFFEDCFDDFF6E
:10329000DECFE9FFDDCFEAFF020EE926000EEA22CB
:1032A000FB0EDBCFEEFFFC0EDBCFEDFFDECFE9FF49
:1032B000DDCFEAFFEE52FA0EDBCFEFFF400E146EC9
:1032C000DECFE9FFDDCFEAFF1450EF16880E146E53
:1032D000DECFE9FFDDCFEAFF1450EF12FD0EDB5029
:1032E0000CE0FE0EEA6ADB34FE0BEA36E96E710E84
:1032F000E926000EEA22EF740BD0FE0EEA6ADB34F8
:10330000FE0BEA36E96E670EE926000EEA22EF743C
:10331000DECF14F0DDCF15F014C0F3FF15C0F4FFBD
:10332000020EE15C03E200D0E16AE552E16EE55293
:10333000E7CFD9FF1200D9CFE6FFE1CFD9FF64A8CC
:103340004ED0FE0EEA6ADB34FE0BEA36E96E710EF1
:10335000E926000EEA22EE50EFCFEAFFE96E400EBA
:10336000EE16EE6AEE6AEE6AFE0EEA6ADB34FE0BD9
:10337000EA36E96E710EE926000EEA22EE50EFCF32
:10338000EAFFE96EEE7CFE0EEA6ADB34FE0BEA36FB
:10339000E96E710EE926000EEA22EF74400E146EFB
:1033A000FE0EEA6ADB34FE0BEA36E96E710EE926A0
:1033B000000EEA22EE50EFCFEAFFE96E1450EF164E
:1033C000FE0EEA6ADB34FE0BEA36E96E710EE92680
:1033D000000EEA22EE50EFCFEAFFE96EEF7CE552F5
:0633E000E7CFD9FF120047
:0A33E6001201000200000008EA22B4
:1033F000090001000102000109028200040100C06D
:103400003209040000010301020009211101000139
:1034100022340007058103040001090401000203AE
:10342000000000092111010001223100070582037B
:1034300040000107050203400001090402000203E5
:10344000010100092111010001223F00070583034A
:103450000800010705030308000109040300020333
:10346000000000092111010001221D00070584034D
:103470004000010705040340000105010902A10104
:103480000901A1000509190129031500250195036A
:103490007501810295017505810105010930093128
:1034A00009381581257F750895038106C0C005017F
:1034B0000905A10115002501350045017501950C8F
:1034C00005091901290C81029504810105010930C2
:1034D000093126FF0046FF00750895028102C005EC
:1034E000010906A101050719E029E7150025017565
:1034F00001950881029501750881039505750105FF
:103500000819012905910295017503910395067526
:1035100008150025650507190029658100C006000A
:10352000FF0901A10119012940150026FF007508B6
:1035300095408100190129409100C0040309042627
:1035400003420069007400200054007200610064AE
:1035500000650020004F006E00650020004C005404
:103560000044002E002E034D006900630072006FBE
:103570000020004D0075006C0074006900200043BD
:10358000006F006E00740072006F006C006C0065CC
:0B359000007200F8333B353F35653515
:04359C000201505187
:1035A0001F0B010801E0B8D0060E515D01E077D095
:1035B0005351230A73E0010A3AE0030A01E06FD095
:1035C0005451030A28E0010A1BE0030A0EE0010A35
:1035D00001E02CD000010A0E7D6F340E7E6F090EC3
:1035E000806F816BC00E7F6F21D00001230E7D6F35
:1035F000340E7E6F090E806F816BC00E7F6F16D008
:103600000001430E7D6F340E7E6F090E806F816B5B
:10361000C00E7F6F0BD00001630E7D6F340E7E6F86
:10362000090E806F816BC00E7F6F00D038D054516F
:10363000030A28E0010A1BE0030A0EE0010A01E088
:103640002CD000017A0E7D6F340E7E6F340E806FA9
:10365000816BC00E7F6F21D00001AE0E7D6F340EE6
:103660007E6F310E806F816BC00E7F6F16D00001B0
:10367000DF0E7D6F340E7E6F3F0E806F816BC00E4C
:103680007F6F0BD000011E0E7D6F350E7E6F1D0EFD
:10369000806F816BC00E7F6F00D001D000D002011F
:1036A0005051600BE842E842E842E842E842010833
:1036B00001E032D051510B0A29E0080A1CE0090A46
:1036C00014E0080A07E00B0A04E0080A01E024D02D
:1036D00023D022D00001F50E7D6F000E7E6F010E0B
:1036E000806F816BC10E7F6F17D00001800E7F6FDE
:1036F00053C2F5F011D00001F60E7D6F000E7E6F03
:10370000010E806F816B810E7F6F06D00001800EED
:0A3710007F6F52C2F6F000D01200E5
:06371A00006A0EAE96EFFE
:103720001BF00D6C0E1EE86A0E22001E09AE9EEF05
:103730001BF0086C091EE86A0922001E6FEC1CF0E1
:1037400009BEAEEF1BF000AE000C086C091EE86A63
:103750000922046C051EE86A0522000C00BEA5EFD4
:103760001BF00188FF0C09C013F008C012F00850CC
:103770000D02F4CF07F0F3CF06F009500E02F4CF9C
:1037800009F0F3CF08F00D02F3500726F450082299
:10379000E86A092212500E02F3500726F45008225C
:1037A000E86A09220EAED9EF1BF01250085E1350E2
:1037B000095A13AE000C0D50085E0E50095A000C49
:1037C0001E0EF66E100EF76E000EF86E0001090068
:1037D000F550F06F0900F550F16F03E1F06701D08B
:1037E0003DD00900F550EB6F0900F550EC6F090072
:1037F000F550ED6F09000900F550E96E0900F5502C
:10380000EA6E090009000900F550EE6F0900F55055
:10381000EF6F09000900F6CFF2F0F7CFF3F0F8CF21
:10382000F4F0EBC0F6FFECC0F7FFEDC0F8FF0001CD
:10383000EE5302E1EF5307E00900F550EE6EEE079C
:10384000F8E2EF07F9D7F2C0F6FFF3C0F7FFF4C0D4
:0E385000F8FF0001F007000EF15BBFD7120079
:02385E00D9CFC0
:10386000E6FFE1CFD9FFFD0EDB50A96EA66AA68068
:10387000A85000D0E552E7CFD9FF1200D9CFE6FF1C
:10388000E1CFD9FFFD0EDB50A96EFC0EDB50A86E18
:10389000040EA66E550EA76EAA0EA76EA682A6B23D
:0A38A000FED7E552E7CFD9FF120072
:0638AA00FE0EE3CFE9FF72
:1038B000FF0EE3CFEAFFE9CFF3FFEACFF4FFFB0E01
:1038C000E35003E1FC0EE35009E0FB0EE30602E2E5
:0E38D000FC0EE306FD0EE350EE6EF1D7120083
:0238DE00056A79
:1038E000046A100EE76ED89008360936043605369D
:1038F0000D50045C0E50055805E30D50045E0E504B
:0A390000055A082AE72EF0D712003E
:06390A00000EF36E00EE5A
:1039100000F0030E01D81200EA6002D0EE6AFCD774
:0A392000F350E9601200EE6AFCD7D4
:06392A0011EE00F021EE99
:1039300000F0F86A019CE0EC1BF003EC08F032ECBC
:0639400008F0FBD71200A5
:0A3946000000000000000000000077
:103950000000000000000000000000000000000067
:0D396000000000000000000000000000005A
:020000040030CA
:0100000000FF
:0100010032CC
:0100020001FC
:010003001EDE
:0100050000FA
:0100060001F8
:0100080003F4
:01000900C036
:01000A0003F2
:01000B00E014
:01000C0003F0
:01000D0040B2
:00000001FF
