:020000040000FA
:0600000047EF19F01200A9
:0600080004EF08F01200F5
:060018000CEF08F01200DD
:0610000047EF19F0120099
:021006001200D6
:0610080091EF10F0120050
:061018009AEF10F0120037
:02101E000100CF
:0C102000AA320000C10000000C0000001B
:04102C00D9CFE6FF33
:10103000E1CFD9FFE6520F015F6B626A160E616E57
:101040009F0E5B6F7B0E606E648C5C6B040EE66EB5
:10105000E66AE66A540EE66E0F0EE66E1DEC19F0B7
:10106000146E050EE15E1450649CDF6ADF50146E4E
:10107000156A140E145C000E155810E2DF50040DB2
:10108000F3CFE9FFF4CFEAFF000EE926020EEA22D1
:10109000EE6AEE6AEE6AEE6ADF2AE8D70F01160EF4
:1010A000536F62A602D06296FCD700017F6B846BFF
:1010B000856B866B6498080E716F020E726F616BA0
:1010C000606BE552E552E7CFD9FF1200D9CFE6FFBA
:1010D000E1CFD9FFE6520001605117E106D0646A02
:1010E000606A0001606BA194AAD0646A606A160EFF
:1010F000616E0F019F0E5B6F7B0E606E64B602D057
:101100006486FCD70001010E606F600508E164BAD7
:1011100006D0626A606A60806088020E606F62500A
:10112000040B05E06050040B02E06294B9D864A29D
:1011300002D0A19484D06250010B12E06050010BE8
:101140000FE074DF0001040E606F0201500E026FA9
:10115000020E036F080E016F006B8C0E001362907D
:101160006250100B05E06050100B02E087D86298C7
:101170006250400B13E06050400B10E0010EE66E31
:10118000E66A000EE66EE66A730EE66EE66A96ECB6
:1011900016F0146E060EE15E1450629C6250200B35
:1011A00004E06050200B01E04FD86250020B14E0C5
:1011B0006050020B11E0010EE66EE66A000EE66E6C
:1011C000E66AE6687F0EE66E96EC16F0146E060E82
:1011D000E15E14500F015F6B040E0001E76E6019B1
:1011E000E8AE02D0E73402D0E750605D02E2A1949D
:1011F00026D060A623D0DF6A040EDF5C1FE262A661
:101200001AD063CF8CF06296780E00018C1502E143
:101210005CD810D0000EE66EE66A8C0EE66E000E0C
:10122000E66E720EE66EE66A96EC16F0146E060E28
:10123000E15E145001D002D0DF2ADED7A194E5523E
:10124000E552E7CFD9FF12000F0153A115D063C0BB
:10125000E9FF64C0EAFFEF5080080DE171C0E9FFCB
:1012600072C0EAFFEF50840806E163C0E9FF64C082
:10127000EAFF8C0EEF6E5391629A120060846298BE
:101280006482000EE66EE66AE66EE66A750EE66E4B
:10129000E66A96EC16F0146E060EE15E145012002B
:1012A000000EE66EE66AE66EE66A740EE66EE66AC2
:1012B00096EC16F0146E060EE15E14506492609483
:1012C00062A402D06294FCD71200D9CFE6FFE1CF2E
:1012D000D9FFE652FD0E00018C155AE17E0E8C15E9
:1012E000E8407F0B040DF3CF63F0F4CF64F0000E01
:1012F0006327020E642363C065F064C066F0657501
:1013000063C0E9FF64C0EAFFEF503C0BE842E842EB
:101310000D083CE163C0E9FF64C0EAFF020EE92664
:10132000000EEA22EECF14F0EFCF15F0580E14188D
:1013300002E1020E151828E163C0E9FF64C0EAFF6C
:10134000020EE926000EEA22500EEE6E020EED6E3F
:10135000DF6ADF50146E156A080E145C000E155813
:1013600013E2DF50EA6A580FE96E020EEA22EF50EC
:10137000E66EDF50EA6A500FE96E020EEA22E5528D
:10138000E750EF6EDF2AE5D70DD801D02ED805D073
:10139000FD0E8C15040801E14ED8E552E552E7CF69
:1013A000D9FF120071C0E9FF72C0EAFFEF50800B55
:1013B00005E071C0E9FF72C0EAFFEF6A00017B6BD4
:1013C0007C6B806B816B7F6BB9D8000EE66EE66A32
:1013D000E66EE66A030EE66EE66A96EC16F0146EAA
:1013E000060EE15E145049EF0CF0020E00017C5D28
:1013F00002E1AFDB1FD06FD800018D511AE165C04B
:10140000E9FF66C0EAFFEE52080EEF6E65C0E9FF25
:1014100066C0EAFF020EE926000EEA22500EEE6ECA
:10142000020EED6E65C0E9FF66C0EAFF8C0EEF6E3E
:1014300001D08D6B1200D9CFE6FFE1CFD9FFE65284
:1014400071C0E9FF72C0EAFFEF50400B01E0010EEE
:10145000DF6E00017175080E605D0DE152C25CFF28
:101460000F015C51000804E20001100E606F03D010
:101470000001040E606F7C0528E171C0E9FF72C0B5
:10148000EAFF020EE926000EEA22580EEE6E020E68
:10149000ED6ED4DA020E00017B5D07E171C0E9FF59
:1014A00072C0EAFF840EEF6E0FD0DF5007E171C00B
:1014B000E9FF72C0EAFFC80EEF6E06D071C0E9FF07
:1014C00072C0EAFF880EEF6E01D005D8E552E552F2
:1014D000E7CFD9FF1200D9CFE6FFE1CFD9FF020E47
:1014E000E12600017C6B71C0E9FF72C0EAFFEF6A80
:1014F000040E7119146E72C015F014C0DEFF15C011
:10150000DDFFDECFE9FFDDCFEAFFEF6A84AF0CD06D
:101510008751881107E005D088C0FAFF0001875184
:10152000F96EFADF0001849F020EE15C02E2E16ADB
:10153000E552E16EE552E7CFD9FF120002015051AA
:10154000600BE842E842E842E842E842000901E074
:1015500058D051510C0A54E00B0A43E00C0A35E014
:10156000010A26E00B0A22E0020A20E0030A1CE03E
:10157000080A10E0010A0CE00F0A08E0030A01E083
:101580003FD000017F8F080E606F3BD0C7D839D0A5
:101590007EDB37D00001610E7D6F000E7E6F7F8194
:1015A000010E806F7F8F2DD013D92BD02BD829D04F
:1015B000545100017D6F7E6B620E7D27000E7E23ED
:1015C0007F81010E806F7F8F1CD000017F8F020111
:1015D0005451EA6A620FE96E000EEA2252C2EFFF2E
:1015E00010D0000EE66EE66AE66EE66A020EE66E61
:1015F000E66A96EC16F0146E060EE15E145001D009
:1016000000D01200D9CFE6FFE1CFD9FF040EE126CA
:101610000201520510E150511F0B00090CE10001BD
:101620007F8F030E0201515D04E10001010E8B6FFB
:1016300002D000018B6B0201525166E150511F0B29
:10164000020862E154510F0B00095EE000017F8F38
:10165000020154BF10D054510F0BE96EEA6AD890C2
:10166000E936EA36670EE926000EEA22EECFDEFF03
:10167000EDCFDDFF0FD054510F0BE96EEA6AD89021
:10168000E936EA36710EE926000EEA22EECFDEFFD9
:10169000EDCFDDFF030E515D07E1DECFE9FFDDCFCA
:1016A000EAFF840EEF6E30D054510F0B156A530FC2
:1016B000146E0F0E1522020E14C0DBFF030E15C0B0
:1016C000DBFF020EDBCFE9FF030EDBCFEAFFEF907B
:1016D00054AF0DD0DECFE9FFDDCFEAFFEF6ADF7454
:1016E000DECFE9FFDDCFEAFF400EEF6E0DD0DECF9B
:1016F000E9FFDDCFEAFF880EEF6EDF74DECFE9FF92
:10170000DDCFEAFFC80EEF6E040EE15C02E2E16A93
:10171000E552E16EE552E7CFD9FF1200800E0201DB
:10172000505D55E10001C00E7F6F02015351030A65
:101730002EE0010A0EE0030A03E000017F6B47D0B0
:101740000001C20E7D6F2D0E7E6F120E806F816BB9
:101750003ED05251F66EF76AD890F636F7366F0ED5
:10176000F6262F0EF7220900F5CF7DF00A00F5CFFF
:101770007EF0020E0001F76A7D25F66E7E51F7229B
:101780000900F5CF80F00A00F5CF81F020D0030EDC
:10179000525D1AE25251F66EF76AD890F636F73675
:1017A000710EF6262F0EF7220900F5CF7DF00A0004
:1017B000F5CF7EF07DC0F6FF7EC0F7FF0800F55044
:1017C0000001806F816B02D000017F6B00D012009E
:1017D000D9CFE6FFE1CFD9FF020EE1260201586B17
:1017E000596B50511F0B020A12E0030A0DE0010A67
:1017F00001E03BD000017F8F0201588100018B0581
:1018000002E10201588331D000017F8F2ED0000108
:101810007F8F020154BF10D054510F0BE96EEA6A5A
:10182000D890E936EA36670EE926000EEA22EECFB6
:10183000DEFFEDCFDDFF0FD054510F0BE96EEA6AEA
:10184000D890E936EA36710EE926000EEA22EECF8C
:10185000DEFFEDCFDDFFDECFE9FFDDCFEAFFEF50AA
:10186000040B02E0010E586F00D000017FAF07D0DB
:10187000580E7D6F020E7E6F7F81020E806F020E0A
:10188000E15C02E2E16AE552E16EE552E7CFD9FFA1
:101890001200649800017FBF4AD084AF28D0020EA6
:1018A0007C6F71C0E9FF72C0EAFFEE52EF6A71C04F
:1018B000E9FF72C0EAFFC80EEF6E65C0E9FF66C0BF
:1018C000EAFFEE52080EEF6E65C0E9FF66C0EAFF60
:1018D000020EE926000EEA22580EEE6E020EED6EA2
:1018E00065C0E9FF66C0EAFFC80EEF6E1FD065C095
:1018F000E9FF66C0EAFFEE52080EEF6E65C0E9FF31
:1019000066C0EAFF020EE926000EEA22500EEE6ED5
:10191000020EED6E65C0E9FF66C0EAFF8C0EEF6E49
:1019200071C0E9FF72C0EAFF840EEF6E86D084BFFB
:1019300084D0020150AF59D0000180510201565DA0
:10194000000181510201575904E256C280F057C28A
:1019500081F074D80001010E7C6F65C0E9FF66C09C
:10196000EAFFEE52080EEF6E65C0E9FF66C0EAFFBF
:10197000020EE926000EEA22500EEE6E020EED6E09
:1019800065C0E9FF66C0EAFF800EEF6E8D6B63C035
:10199000E9FF64C0EAFFEE52080EEF6E63C0E9FF94
:1019A00064C0EAFF020EE926000EEA22500EEE6E37
:1019B000020EED6E63C0E9FF64C0EAFF840EEF6EB5
:1019C000010E8D6F71C0E9FF72C0EAFF020EE926B9
:1019D000000EEA22580EEE6E020EED6E71C0E9FFA7
:1019E00072C0EAFFC80EEF6E28D00001020E7C6FB5
:1019F00071C0E9FF72C0EAFFEE52EF6A71C0E9FF01
:101A000072C0EAFFC80EEF6E65C0E9FF66C0EAFF6C
:101A1000EE52080EEF6E65C0E9FF66C0EAFF020EE7
:101A2000E926000EEA22580EEE6E020EED6E65C03B
:101A3000E9FF66C0EAFFC80EEF6E1200D9CFE6FFDD
:101A4000E1CFD9FF020EE1260001080E805D000EF5
:101A500081590EE280C0DEFF81C0DDFF7B5103E1D2
:101A6000010E7B6F04D07B0502E1020E7B6F03D079
:101A7000080EDE6EDD6A71C0E9FF72C0EAFFEF9208
:101A800071C0E9FF72C0EAFFEF9071C0E9FF72C058
:101A9000EAFF010EDB50EF1271C0E9FF72C0EAFFEE
:101AA000EE52DFCFEFFF000EDB50805F010EDB5008
:101AB000815B580E896F020E8A6F7FB121D0D9CF1A
:101AC000E9FFDACFEAFFEE50ED1019E07DC0F6FF36
:101AD0007EC0F7FF7D2B000E7E230800F550E66EDA
:101AE00089C0E9FF8AC0EAFF892B000E8A23E552EC
:101AF000E750EF6EDF06010E01E2DB06E0D71FD0F4
:101B0000D9CFE9FFDACFEAFFEE50ED1018E07DC043
:101B1000E9FF7EC0EAFF7D2B000E7E23EF50E66ECC
:101B200089C0E9FF8AC0EAFF892B000E8A23E552AB
:101B3000E750EF6EDF06010E01E2DB06E1D7020E91
:101B4000E15C02E2E16AE552E16EE552E7CFD9FFDE
:101B50001200D9CFE6FFE1CFD9FF020EE12663C024
:101B6000E9FF64C0EAFFEE52EFCFDFFFDFCF14F0F2
:101B700014500001855D000E865903E285C0DFFF29
:101B800009D0DF50146E156A1450855D856F1550AD
:101B90008659866F010EDB6ADF50F36E010EDBCFD4
:101BA000F4FFF350F45C16E2010EDB50EA6A580FC2
:101BB000E96E020EEA22EF50E66E82C0E9FF83C0B2
:101BC000EAFF822B000E8323E552E750EF6E010EF1
:101BD000DB2AE2D7000ED8808555000E865528E214
:101BE00065C0E9FF66C0EAFFEE52080EEF6E65C001
:101BF000E9FF66C0EAFF020EE926000EEA22580E4F
:101C0000EE6E020EED6E63C0E9FF64C0EAFFEF50B6
:101C1000400B07E165C0E9FF66C0EAFFC80EEF6E42
:101C200006D065C0E9FF66C0EAFF880EEF6E25D0DA
:101C300065C0E9FF66C0EAFFEE52080EEF6E65C0B0
:101C4000E9FF66C0EAFF020EE926000EEA22500E06
:101C5000EE6E020EED6E65C0E9FF66C0EAFF840E0F
:101C6000EF6E8751881107E005D088C0FAFF0001A8
:101C70008751F96EFADF0001849F020EE15C02E2F7
:101C8000E16AE552E16EE552E7CFD9FF1200D9CF04
:101C9000E6FFE1CFD9FFE65200017F8F040EE66E2A
:101CA000E66AE66A540EE66E0F0EE66E1DEC19F05B
:101CB000146E050EE15E1450DF6ADF50146E156A73
:101CC000140E145C000E155810E2DF50040DF3CF13
:101CD000E9FFF4CFEAFF000EE926020EEA22EE6ADF
:101CE000EE6AEE6AEE6ADF2AE8D7648C010EE66ED1
:101CF000E66AE66A620EE66E000EE66E1DEC19F00C
:101D0000146E050EE15E1450649C0001080E716FA4
:101D1000020E726F000E636F020E646F63C065F097
:101D200064C066F052C261F0615103E1100E606F51
:101D300012D0200E606F010EE66EE66A610EE66E4E
:101D4000000EE66E010EE66EE66A96EC16F0146E74
:101D5000060EE15E1450E552E552E7CFD9FF1200BE
:101D6000D9CFE6FFE1CFD9FF020EE126000EDE6EED
:101D7000020EDD6EFD0EDB50E824166EFE0EDB500B
:101D8000040DF3501624040DF350146E156A020E60
:101D90000F0B05E0D89015321432E806FBE1D8901D
:101DA00014361536D89014361536D9CFE9FFDACF68
:101DB000EAFF1450EE261550ED22DECFE9FFDDCF0D
:101DC000EAFFEF9EFD0EDB500FE1FE0EEA6ADB3408
:101DD000FE0BEA36E96E670EE926000EEA22DECF38
:101DE000EEFFDDCFEDFF0ED0FE0EEA6ADB34FE0B18
:101DF000EA36E96E710EE926000EEA22DECFEEFF2A
:101E0000DDCFEDFFDECFE9FFDDCFEAFFEF9CDECFD8
:101E1000E9FFDDCFEAFF040EE926000EEA22EF8C8F
:101E2000020EE15C02E2E16AE552E16EE552E7CFC3
:101E3000D9FF1200D9CFE6FFE1CFD9FF020EE1268C
:101E4000FE0EDB50156A530F146E0F0E152214C0D0
:101E5000DEFF15C0DDFFDECFE9FFDDCFEAFFFD0EBF
:101E6000DBCFEFFFDBA407D0E66AFE0EDBCFE6FF99
:101E700077DFE552E552FD0EDBA208D0010EE66EDB
:101E8000FE0EDBCFE6FF6CDFE552E552020EE15CB1
:101E900002E2E16AE552E16EE552E7CFD9FF1200B6
:101EA000D9CFE6FFE1CFD9FF020EE126FE0EDB50CF
:101EB00020E165C0E9FF66C0EAFFEE52080EEF6E52
:101EC00065C0E9FF66C0EAFF020EE926000EEA22BD
:101ED000500EEE6E020EED6E65C0E9FF66C0EAFFC1
:101EE0008C0EEF6E71C0E9FF72C0EAFF840EEF6ED8
:101EF0003DD0FD0EDB50E824166EFE0EDB50040DC7
:101F0000F3501624040DF3CF14F0F4CF15F0000EA7
:101F10001426020E152214C0DEFF15C0DDFF840E4C
:101F2000146EDECFE9FFDDCFEAFF1450EF12FD0E95
:101F3000DB50E824166EFE0EDB50040DF350162421
:101F4000010F040DF3CF14F0F4CF15F0000E14269A
:101F5000020E152214C0DEFF15C0DDFF840E146EC4
:101F6000DECFE9FFDDCFEAFF1450EF12020EE15C95
:101F700002E2E16AE552E16EE552E7CFD9FF1200D5
:101F8000D9CFE6FFE1CFD9FF020EE126FD0EDB50EF
:101F90000FE0FE0EEA6ADB34FE0BEA36E96E710EE4
:101FA000E926000EEA22EECFDEFFEDCFDDFF0ED0F8
:101FB000FE0EEA6ADB34FE0BEA36E96E670EE926AE
:101FC000000EEA22EECFDEFFEDCFDDFFDECFE9FF30
:101FD000DDCFEAFF020EE926000EEA22FB0EDBCF80
:101FE000EEFFFC0EDBCFEDFFDECFE9FFDDCFEAFF3A
:101FF000EE52FA0EDBCFEFFF400E146EDECFE9FF9C
:10200000DDCFEAFF1450EF16880E146EDECFE9FF25
:10201000DDCFEAFF1450EF12FD0EDB500CE0FE0E98
:10202000EA6ADB34FE0BEA36E96E710EE926000E31
:10203000EA22EF740BD0FE0EEA6ADB34FE0BEA36BE
:10204000E96E670EE926000EEA22EF74DECF14F087
:10205000DDCF15F014C0F3FF15C0F4FF020EE15CF4
:1020600003E200D0E16AE552E16EE552E7CFD9FF25
:102070001200D9CFE6FFE1CFD9FF64A84ED0FE0E03
:10208000EA6ADB34FE0BEA36E96E710EE926000ED1
:10209000EA22EE50EFCFEAFFE96E400EEE16EE6A4E
:1020A000EE6AEE6AFE0EEA6ADB34FE0BEA36E96E91
:1020B000710EE926000EEA22EE50EFCFEAFFE96E3C
:1020C000EE7CFE0EEA6ADB34FE0BEA36E96E710E38
:1020D000E926000EEA22EF74400E146EFE0EEA6A44
:1020E000DB34FE0BEA36E96E710EE926000EEA22B9
:1020F000EE50EFCFEAFFE96E1450EF16FE0EEA6ADB
:10210000DB34FE0BEA36E96E710EE926000EEA2298
:10211000EE50EFCFEAFFE96EEF7CE552E7CFD9FF53
:022120001200AB
:0E212200DACFE4FFE2CFDAFFE652E552E5CF76
:10213000DAFF1100D8CFE4FFE0CFE4FFE46EDACF9E
:10214000E4FFE2CFDAFFE652E552E5CFDAFFE550F1
:10215000E5CFE0FFE5CFD8FF100005D866EC08F02A
:1021600088D8FCD712000F0EC11202D816EF08F063
:10217000D9CFE6FFE1CFD9FFE652010EDF6EF00EB8
:10218000936EB00E946E7E6A7F6AF19E7888788A2C
:10219000788C788E0001A66BA76BA86BA96BAA6BD5
:1021A000AB6BAC6BAD6B0001C26BC36BC46BC56B2F
:1021B00002016B6B6BC26AF26BC269F26E6B6EC22C
:1021C0006DF26EC26CF20201686B68C267F268C29F
:1021D00066F268C265F268C264F268C263F268C2FD
:1021E00062F268C261F282BE03D00001C16B1DD0F1
:1021F00082BA04D00001050EC16F17D081BE04D091
:102200000001020EC16F11D081BC04D00001030E89
:10221000C16F0BD081BA04D00001040EC16F05D08C
:1022200081B803D00001010EC16F630E0001C15DD2
:102230000FE1000EE66EE66AF7EC18F0E552E552A3
:102240000001C16FC151050802E2C16B01D0DF6A14
:10225000DF500AE0C1C0E6FF000EE66EE66A06EC5B
:1022600019F0E552E552E552E552E552E7CFD9FFC4
:102270001200200E0001E76E6019E8AE02D0E734CC
:1022800002D0E750605D03E36450020B01E01ED012
:102290000001C151050A17E0010A13E0070A0FE027
:1022A000010A0BE0030A07E0010A03E0C4EC15F0A1
:1022B0000DD00DD80BD0AADA09D003DB07D05FDB35
:1022C00005D0B4DB03D06CEC15F000D01200D9CFF0
:1022D000E6FFE1CFD9FFE6528150100B100A01E072
:1022E000010E1A6E8150200B200A01E0010E1A0225
:1022F000F350040DF3CF19F08150100B01E0010EE3
:10230000186E8150200B200A01E0010E1802F350D4
:10231000E824176E0001CA0502E0000E01D0010E8C
:10232000166E8150400B400A01E0010E1614156E26
:102330008150100B01E0010E146E8150400B400AD9
:1023400001E0010E1402F3501510172419240001A6
:102350009E6F0001CA0502E0000E01D0010E186E4A
:102360008150400B01E0010E176E8150100B01E00F
:10237000010E17101810166E8250200B200A01E073
:10238000010E1602F350146E156A14500001B127A5
:102390001550B2230001CA0502E0000E01D0010E63
:1023A000186E8150400B01E0010E176E8150100B2A
:1023B00001E0010E17101810166E8250800B800A73
:1023C00001E0010E1602F350146E156A145000015C
:1023D000B15F1550B25B0001CA0502E0000E01D0EA
:1023E000010E186E8150400B01E0010E176E8150F6
:1023F000100B01E0010E17101810166E8150800BA3
:10240000800A01E0010E1602F350146E156A145092
:102410000001B3271550B4230001CA0502E0000EE5
:1024200001D0010E186E8150400B01E0010E176EB5
:102430008150100B01E0010E17101810166E82501B
:10244000100B100A01E0010E1602F350146E156A0B
:1024500014500001B35F1550B45B0001CA5102E093
:10246000000E01D0010E196E8150400B400A01E0B0
:10247000010E186E8150100B100A01E0010E1814A5
:102480001914176E8250200B200A01E0010E030D73
:10249000F3CF16F08150800B800A01E0010E162464
:1024A0001702F3CF14F0156A14BE1568145000011A
:1024B000B55F1550B65B0001CA5102E0000E01D0B5
:1024C000010E196E8150400B400A01E0010E186E9A
:1024D0008150100B100A01E0010E18141914176E28
:1024E0008250800B800A01E0010E030DF3CF16F03D
:1024F0008250100B100A01E0010E16241702F3CFD0
:1025000014F0156A14BE156814500001B527155053
:10251000B623BA51B219E8AE02D0B23504D0B151E7
:10252000B95DB251BA5905E2B951B15FBA51B25B66
:102530009F2B08680968B9C00DF0BAC00EF0CAEC4C
:1025400018F006C014F007C015F00001B2511518BC
:10255000E8AE02D0153404D01450B15D1550B25914
:1025600005E2B951B127BA51B2239F07BC51B41942
:10257000E8AE02D0B43504D0B351BB5DB451BC5900
:1025800005E2BB51B35FBC51B45BA02B086809687E
:10259000BBC00DF0BCC00EF0CAEC18F006C014F0C1
:1025A00007C015F00001B4511518E8AE02D015347B
:1025B00004D01450B35D1550B45905E2BB51B32794
:1025C000BC51B423A007BE51B619E8AE02D0B6354F
:1025D00004D0B551BD5DB651BE5909E2BD51B55FDC
:1025E000BE51B65BB80EBD6F0B0EBE6FA12BBDC04A
:1025F00014F0BEC015F0146C151E000E1522B65155
:102600001518E8AE02D0153404D01450B55D15503D
:10261000B65909E2BD51B527BE51B623B80EBD6FFC
:102620000B0EBE6FA1070001C851C91102E0000ED8
:1026300001D0010E176E8250800B01E0010E166E64
:102640008250200B01E0010E156E8150800B01E0DD
:10265000010E146E8250100B01E0010E14141514BB
:102660001614171410E0100EC81902E1270EC9192C
:1026700002E0000E01D0010E640E0001BD6FBE6BC2
:10268000A16BB56BB66B0001C851C91103E0C80757
:10269000000EC95BC607000EC75BC651C71149E1F2
:1026A000640EC66FC76B8250200B200A01E0010E3A
:1026B000146E8250800B800A01E0010E141012E0AB
:1026C0000A0E0001B95F000EBA5B500EBAAF02D01D
:1026D000D89003D0B95D000EBA5903E2500EB96F1D
:1026E000BA6B05D00001F40EB96F010EBA6F8150BC
:1026F000800B800A01E0010E146E8250100B100A4C
:1027000001E0010E141011E00A0EBB5F000EBC5B6D
:10271000500EBCAF02D0D89003D0BB5D000EBC59A8
:1027200003E2500EBB6FBC6B04D0F40EBB6F010E06
:10273000BC6F81B806D01E0E0001B96FBA6BBB6FBB
:10274000BC6B8250200B200A01E0010E166E8250F5
:10275000800B800A01E0010E156E8150800B800A0B
:1027600001E0010E146E8250100B100A01E0010E00
:102770001410151016100001CB6F8150100B01E0E2
:10278000010E146E8150400B400A01E0010E14143A
:1027900006E0CC5104E1CB5102E0010ECA6FCBC080
:1027A000CCF081BCCA6B0001A651A71102E1000E5A
:1027B00008D0A6C0E9FFA7C0EAFFEF50800B01E0F8
:1027C000010E00091EE19EC06CF29FC06DF2A0C018
:1027D0006EF2A1C06FF29F6BA06BA16B040EE66E50
:1027E0006C0EE66E020EE66E010EE66EE66EC0EC54
:1027F0000FF0146E050EE15E1450F3CFA6F0F4CF87
:10280000A7F0E552E552E7CFD9FF12000001AA5127
:10281000AB1102E1000E08D0AAC0E9FFABC0EAFF8D
:10282000EF50800B01E0010E00094AE10201616BEB
:10283000626B82B803D0520E636F08D08150800B58
:10284000800A01E0010E510DF3CF63F282BE03D086
:10285000500E646F08D08250200B200A01E0010E58
:102860004F0DF3CF64F28150400B400A01E0010E9E
:10287000280DF3CF65F28150200B200A01E0010EF4
:10288000E10DF3CF66F28150100B100A01E0010E4A
:102890002C0DF3CF67F2686B080EE66E610EE66EE4
:1028A000020EE66E010EE66E030EE66EC0EC0FF051
:1028B000146E050EE15E1450F3CFAAF0F4CFABF026
:1028C00012000001A851A91102E1000E08D0A8C011
:1028D000E9FFA9C0EAFFEF50800B01E0010E0009FB
:1028E0004CE18150100B100A01E0010E040DF3CFF2
:1028F00015F08150200B200A01E0010EE824146E2F
:102900008150400B400A01E0010E142415240201FD
:10291000696F8250200B200A01E0010E7F0DF3CF7A
:1029200014F08250800B01E0010E800DF35014244E
:102930006A6F8150800B800A01E0010E7F0DF3CF9A
:1029400014F08250100B01E0010E800DF35014249E
:102950006B6F030EE66E690EE66E020EE66E010EFA
:10296000E66E020EE66EC0EC0FF0146E050EE15E30
:102970001450F3CFA8F0F4CFA9F000D0120000015A
:10298000AA51AB1102E1000E08D0AAC0E9FFABC00A
:10299000EAFFEF50800B01E0010E000946E1020161
:1029A000616B616B636B82B803D0616B420E636FC6
:1029B00081BE03D0616B410E636F82BE04D0030EF3
:1029C000616F050E636F82BA04D0030E616F090E4A
:1029D000636F81BC04D0010E616F050E636F81BA15
:1029E00004D0010E616F090E636F81B804D0010E2F
:1029F000616F130E636F626B646B656B666B676B05
:102A0000686B080EE66E610EE66E020EE66E010E53
:102A1000E66E030EE66EC0EC0FF0146E050EE15E7E
:102A20001450F3CFAAF0F4CFABF012000001AA517A
:102A3000AB1102E1000E08D0AAC0E9FFABC0EAFF6B
:102A4000EF50800B01E0010E000945E10201616BCE
:102A5000616B636B82B804D0010E616F520E636FBD
:102A600081BE04D0010E616F510E636F82BE04D02F
:102A7000050E616F500E636F82BA04D0050E616F50
:102A80004F0E636F81BC03D0616B500E636F81BAD0
:102A900003D0616B4F0E636F81B803D0616B2C0E56
:102AA000636F626B646B656B666B676B686B080E5C
:102AB000E66E610EE66E020EE66E010EE66E030E27
:102AC000E66EC0EC0FF0146E050EE15E1450F3CF0D
:102AD000AAF0F4CFABF012000001AA51AB1102E151
:102AE000000E08D0AAC0E9FFABC0EAFFEF50800B90
:102AF00001E0010E000947E10201616B616B636B4C
:102B000082B804D0010E616F3D0E636F81BE04D0A8
:102B1000010E616F1D0E636F82BE04D0030E616FE4
:102B20002B0E636F82BA04D0010E616F2B0E636FA0
:102B300081BC03D0080E616F636F81BA04D0080EA8
:102B4000616F070E636F81B804D0040E616F3D0E94
:102B5000636F626B646B656B666B676B686B080EAB
:102B6000E66E610EE66E020EE66E010EE66E030E76
:102B7000E66EC0EC0FF0146E050EE15E1450F3CF5C
:102B8000AAF0F4CFABF01200D9CFE6FFE1CFD9FF26
:102B9000020EE1260001C251C31102E1000E08D06D
:102BA000C2C0E9FFC3C0EAFFEF50800B01E0010E95
:102BB000000901E07BD002017851370A33E0B60A00
:102BC00004E0010A01E05FD05ED0810EB86F81AEF3
:102BD00003D0010EB96F01D0B96B0001C451C5110A
:102BE00002E1000E08D0C4C0E9FFC5C0EAFFEF5003
:102BF000800B01E0010E000914E1400EE66EB80EF4
:102C0000E66E020EE66E010EE66E040EE66EC0EC97
:102C10000FF0146E050EE15E1450F3CFC4F0F4CF44
:102C2000C5F031D00001C451C51102E1000E08D039
:102C3000C4C0E9FFC5C0EAFFEF50800B01E0010E00
:102C4000000920E10201370EB86F8250100B100A04
:102C500001E0010E500DF3CFB9F2BA6B400EE66EF3
:102C6000B80EE66E020EE66E010EE66E040EE66E1D
:102C7000C0EC0FF0146E050EE15E1450F3CFC4F0FB
:102C8000F4CFC5F000D0400EE66E780EE66E020E70
:102C9000E66EE66A040EE66EC0EC0FF0146E050EEA
:102CA000E15E1450F3CFC2F0F4CFC3F0020EE15C4A
:102CB00002E2E16AE552E16EE552E7CFD9FF120088
:102CC0001200120012001200BCEF17F012001E0ECC
:102CD000E66E010EE66E1AEC0FF0E552E5521E0E9E
:102CE000E66E020EE66E1AEC0FF0E552E5521E0E8D
:102CF000E66E030EE66E1AEC0FF0E552E5521E0E7C
:102D0000E66E040EE66E1AEC0FF0E552E552120084
:102D100064840001080EBF6F070EC06FBF07000E6E
:102D2000C05BBF51C011FAE164941200D9CFE6FF35
:102D3000E1CFD9FFFD0EDBCF08F0FE0EDBCF09F0AF
:102D4000720E081801E1095033E0E868081802E142
:102D50007F0E09182BE0740E081801E1095024E0D9
:102D6000750E081801E109501DE0730E081801E105
:102D7000095016E0030E081801E109500FE0020E99
:102D8000081801E1095008E0010E081801E1095096
:102D900001E010D09CDF0FD099DF0DD095DF0BD074
:102DA00091DF09D08DDF07D08CDF05D08CDF03D019
:102DB000000001D000D0010E00D0E552E7CFD9FFCE
:022DC0001200FF
:0E2DC2001201000200000008EA2205000100D4
:102DD0000102000109028200040100C0320904005E
:102DE0000001030102000921110100012234000742
:102DF0000581030400010904010002030000000929
:102E00002111010001223100070582034000010762
:102E10000502034000010904020002030101000948
:102E20002111010001223F0007058303080001076B
:102E30000503030800010904030002030000000960
:102E40002111010001221D00070584034000010734
:102E500005040340000105010902A1010901A100C7
:102E60000509190129031500250195037501810242
:102E70009501750581010501093009310938158170
:102E8000257F750895038106C0C005010905A101CC
:102E90001500250135004501750195030509190146
:102EA000290381029505810105010930093126FFB9
:102EB0000046FF00750895028102C005010906A1C0
:102EC00001050719E029E71500250175019508811D
:102ED00002950175088103950575010508190129F9
:102EE0000591029501750391039506750815002556
:102EF000650507190029658100C00600FF0901A1C9
:102F00000119012940150026FF0075089540810030
:102F1000190129409100C0040309042603420069F5
:102F200000740020005400720061006400650020FD
:102F3000004F006E00650020004C00540044002E3D
:102F4000002E034D006900630072006F0020004DE9
:102F50000075006C0074006900200043006F006E73
:102F600000740072006F006C006C0065007200D489
:072F70002D172F1B2F412F2D
:082F7800020150511F0B01087A
:102F800001E0B8D0060E515D01E077D05351230A1D
:102F900073E0010A3AE0030A01E06FD05451030ADA
:102FA00028E0010A1BE0030A0EE0010A01E02CD030
:102FB0000001E60E7D6F2D0E7E6F090E806F816B16
:102FC000C00E7F6F21D00001FF0E7D6F2D0E7E6F32
:102FD000090E806F816BC00E7F6F16D000011F0E2F
:102FE0007D6F2E0E7E6F090E806F816BC00E7F6F1E
:102FF0000BD000013F0E7D6F2E0E7E6F090E806F8D
:10300000816BC00E7F6F00D038D05451030A28E086
:10301000010A1BE0030A0EE0010A01E02CD00001C6
:10302000560E7D6F2E0E7E6F340E806F816BC00E3C
:103030007F6F21D000018A0E7D6F2E0E7E6F310EC4
:10304000806F816BC00E7F6F16D00001BB0E7D6F4D
:103050002E0E7E6F3F0E806F816BC00E7F6F0BD088
:103060000001FA0E7D6F2E0E7E6F1D0E806F816B3C
:10307000C00E7F6F00D001D000D002015051600B14
:10308000E842E842E842E842E842010801E032D082
:1030900051510B0A29E0080A1CE0090A14E0080A49
:1030A00007E00B0A04E0080A01E024D023D022D074
:1030B0000001D70E7D6F000E7E6F010E806F816B59
:1030C000C10E7F6F17D00001800E7F6F53C2D7F003
:1030D00011D00001D80E7D6F000E7E6F010E806F43
:1030E000816B810E7F6F06D00001800E7F6F52C210
:0630F000D8F000D0120030
:0A30F6001E0EF66E100EF76E000EAF
:10310000F86E00010900F550D26F0900F550D36F39
:1031100003E1D26701D03DD00900F550CD6F090021
:10312000F550CE6F0900F550CF6F09000900F5503A
:10313000E96E0900F550EA6E090009000900F55032
:10314000D06F0900F550D16F09000900F6CFD4F017
:10315000F7CFD5F0F8CFD6F0CDC0F6FFCEC0F7FF51
:10316000CFC0F8FF0001D05302E1D15307E00900BE
:10317000F550EE6ED007F8E2D107F9D7D4C0F6FFCC
:10318000D5C0F7FFD6C0F8FF0001D207000ED35B11
:04319000BFD7120093
:0C31940009C013F008C012F008500D0232
:1031A000F4CF07F0F3CF06F009500E02F4CF09F088
:1031B000F3CF08F00D02F3500726F4500822E86A16
:1031C000092212500E02F3500726F4500822E86A32
:1031D00009220EAEF0EF18F01250085E1350095A93
:0E31E00013AE000C0D50085E0E50095A000C84
:0231EE00D9CF37
:1031F000E6FFE1CFD9FFFD0EDB50A96EA66AA680DF
:10320000A85000D0E552E7CFD9FF1200D9CFE6FF92
:10321000E1CFD9FFFD0EDB50A96EFC0EDB50A86E8E
:10322000040EA66E550EA76EAA0EA76EA682A6B2B3
:0A323000FED7E552E7CFD9FF1200E8
:06323A00FE0EE3CFE9FFE8
:10324000FF0EE3CFEAFFE9CFF3FFEACFF4FFFB0E77
:10325000E35003E1FC0EE35009E0FB0EE30602E25B
:0E326000FC0EE306FD0EE350EE6EF1D71200F9
:02326E00000E50
:10327000F36E00EE00F0030E01D81200EA6002D0F7
:0E328000EE6AFCD7F350E9601200EE6AFCD74C
:02328E0011EE3F
:1032900000F021EE00F0F86A019C7BEC18F003ECE2
:0A32A00008F0ADEC10F0FBD71200AF
:0632AA0063000000006457
:0632B00000000000000018
:020000040030CA
:0100000000FF
:0100010032CC
:0100020001FC
:010003001EDE
:0100050000FA
:0100060001F8
:0100080003F4
:01000900C036
:01000A0003F2
:01000B00E014
:01000C0003F0
:01000D0040B2
:00000001FF
