:020000040000FA
:0600000085EF12F0120072
:0600080004EF08F01200F5
:060018000CEF08F01200DD
:0610000085EF12F0120062
:021006001200D6
:06100800D9EF0DF012000B
:02100E0064007C
:051010000000000000DB
:06101800DBEF0DF01200F9
:02101E000100CF
:0C1020000E100000A800000007000000F7
:04102C0021EC0DF0B6
:101030000F015F6B626A160E616E9F0E5B6F7B0E17
:10104000606E648C5C6B18EC0DF0649CDF6A32ECB3
:101050000DF003E208EC0DF0FAD70F01160E536FF6
:1010600062A602D06296FCD70001736B786B796B35
:101070007A6B6498080E6B6F020E6C6F616B606B1D
:10108000E552E5EF0CF021EC0DF00001605110E1AC
:10109000646A606A160E616E0F019F0E5B6F7B0EB5
:1010A000606E64B602D06486FCD70001010E606FEA
:1010B000600508E164BA06D0626A606A6080608890
:1010C000020E606F6250040B05E06050040B02E0FA
:1010D00062948BD864B24AD06250010B12E0605027
:1010E000010B0FE0A3DF0001040E606F0201200E70
:1010F000026F020E036F080E016F006B8C0E00135F
:1011000062906250100B05E06050100B02E065D851
:1011100062986250400B09E06050400B06E06EECB4
:101120000DF0730ED8EC0CF0629C6250200B04E0C2
:101130006050200B01E03DD86250020B0CE0605083
:10114000020B09E06EEC0DF0E6687F0EE66EB6EC81
:101150000DF00F015F6B040E0001E76E6019E8AE41
:1011600002D0E73402D0E750605D02E2A1941ED0C5
:1011700060A61BD0DF6A040EDF5C17E262A615D002
:1011800063CF80F06296780E0001801502E138D8B6
:101190000AD0000EE66EE66A800EE66E000EE66E7F
:1011A000720ED8EC0CF0DF2AE6D7A194E552E5EFF9
:1011B0000CF00F0153A10FD0ECEC0CF0EF508008B5
:1011C00009E1D3EC0CF0EF50840804E1ECEC0CF0F6
:1011D0008C0EEF6E5391629A120060846298648262
:1011E0003AEC0DF0750ED8EF0CF03AEC0DF0740EF1
:1011F000DFDB6492609462A402D06294FCD7120098
:1012000021EC0DF0FD0E000180153EE17E0E8015F3
:10121000E8407F0B040DF3CF63F0F4CF64F0000ED1
:101220006327020E642363C065F064C066F06575D1
:10123000D3DBEF503C0BE842E8420D0823E1CCDB66
:101240009DEC0DF0EECF14F0EFCF15F0280E141832
:1012500017E1020E151814E1CEEC0DF0DF6A32EC46
:101260000DF00EE2DF5057EC0DF0DF50EA6A200F70
:10127000E96E020EEA22E552E750EF6EDF2AEFD761
:101280000AD807D01AD805D0FD0E8015040801E150
:1012900022D8E5529AD387DBEF50800B02E083DB44
:1012A000EF6A00016F6B706B746B756B736B67D853
:1012B000E1DB030E7DDBF3EF0AF0020E0001705D4F
:1012C00002E180EF0BF037D80001815102E1A2EF7B
:1012D0000DF0816B1200B5DB66DBEF50400B01E0D7
:1012E000010EDF6E00016B75080E605D0CE122C21D
:1012F0005CFF0F015C51000803E20001100E02D0F8
:101300000001040E606F700513E1D2EC0DF0A5D959
:10131000020E00016F5D03E146DB840E07D0DF5053
:1013200003E141DBC80E02D03EDB880EEF6E01D038
:1013300002D8E5524AD345DB0001706B34DBEF6A1B
:10134000040E6B19146E6CC015F0DE6E6CC0DDFF00
:1013500033DBEF6A78AF0CD07B517C1107E005D00E
:101360007CC0FAFF00017B51F96EFADF0001789F23
:10137000020EE15C02E2E16AE552E16E26D302016F
:101380002051600BE842E842E842E842E8420009A6
:1013900001E0120021510C0A45E00B0A3FE00C0A63
:1013A00031E0010A22E00B0A1EE0020A1CE0030AF7
:1013B00018E0080A10E0010A0CE00F0A08E0030A2E
:1013C00001E012000001738F080E606F120073EFCE
:1013D0000AF0DCEF0BF00001610E716F000E726F0E
:1013E0000CD0B4EF0AF013EF0AF024510001716F32
:1013F000726B620E7127000E72237381010E746F7F
:10140000738F12000001738F02012451EA6A620F88
:10141000E96E000EEA2222C2EFFF12002BDB020E61
:10142000D8EF0CF0120092DB040EE1260201220537
:1014300010E120511F0B00090CE10001738F030E16
:101440000201215D04E10001010E7F6F02D0000165
:101450007F6B0201225140E120511F0B02083CE149
:1014600024510F0B000938E00001738F020124BFE3
:1014700005D0B7DA670EE926000E04D0B2DA6B0E9B
:10148000E926000E08DB030E215D03E195DA840EE8
:1014900022D024510F0B156A530F146E0F0E152214
:1014A000020E14C0DBFF030E15C0DBFF020EDBCF04
:1014B000E9FF030EDBCFEAFFEF9024AF06D07CDA22
:1014C000EF6ADF7479DA400E06D076DA880EEF6EB6
:1014D000DF7472DAC80EEF6E040EE15C02E2E16ABC
:1014E000E552E16E72D2800E0201205D3CE1000106
:1014F000C00E736F02012351030A1EE0010A09E0C6
:10150000030A2FE10001120E716F230E726F120E8B
:1015100022D0EBDAB60EF626230ED1DA020E000147
:10152000F76A7125F66E7251F7220900F5CF74F053
:101530000A00F5CF75F01200030E225D0FE2D5DA36
:10154000B80EF626230EBBDA71C0F6FF72C0F7FFA5
:101550000800F5500001746F756B12000001736B89
:1015600012000001736B12002CDA0201286B296B48
:1015700020511F0B020A11E0030A0CE0010A22E1CC
:101580000001738F0201288100017F051BE1020128
:10159000288318D00001738F15D00001738F0201CA
:1015A00024BF05D01EDA670EE926000E04D019DA32
:1015B0006B0EE926000E6FDAFFD9EF50040B02E044
:1015C000010E286F000173AF07D0280E716F020E55
:1015D000726F7381020E746F020EE15C02E2E16AC7
:1015E000E552E16EF2D16498000173BF08D078AF84
:1015F00002D089DA2AD0A6DAD6D9840E27D078BFCD
:101600002BD0020120AF24D0000174510201265DCD
:10161000000175510201275904E226C274F027C265
:1016200075F01BD80001010E706FC0DA800EEF6EEE
:10163000816BD2D9EE52080EEF6EB0DACDD9840E9E
:10164000EF6E010E816FAEDAAED9C80EEF6E1200EA
:10165000000159DAC80EEF6E1200B3D90001080E6E
:10166000745D000E75590DE274C0DEFF75C0DDFFBC
:101670006F5102E1010E03D06F0506E1020E6F6F9C
:1016800003D0080EDE6EDD6A8ED9EF928CD9EF9012
:101690008AD9010EDB50EF1286D9EE52DFCFEFFF71
:1016A000000EDB50745F010EDB50755B280E7D6F02
:1016B000020E7E6F73B10FD01FDA1BE071C0F6FF10
:1016C00072C0F7FF712B000E72230800F550BCD9D1
:1016D000F3E2DB06F1D710DA0CE071C0E9FF72C06B
:1016E000EAFF712B000E7223EF50AED9F4E2DB0655
:1016F000F2D7020EE15C02E2E16AE552E16E65D1E9
:1017000060D96AD9EE52EFCFDFFFDFCF14F014506B
:101710000001795D000E7A5903E279C0DFFF09D03C
:10172000DF50146E156AE850795D796F15507A595B
:101730007A6F010EDB6ADF50F36E010EDBCFF4FF30
:10174000F350F45C10E2010EDB50B1D976C0E9FF32
:1017500077C0EAFF762B000E7723E552E750EF6E55
:10176000010EDB2AE8D7000ED8807955000E7A5595
:101770000DE20DD98BD930D9EF50400B03E109DAD6
:10178000C80E02D006DA880EEF6E0FD00FDA840E84
:10179000EF6E7B517C1107E005D07CC0FAFF0001A1
:1017A0007B51F96EFADF0001789F020EE15C02E2E4
:1017B000E16AE552E16E09D144D90001738F38D94D
:1017C000DF6A50D902E224D9FCD7648C010EE66EA0
:1017D000E66AE66A620EE66E000EC0D9649C0001FD
:1017E000080E6B6F020E6C6F000E636F020E646F5B
:1017F00063C065F0666F22C261F0615103E1100EB3
:10180000606F0BD0200E606F010EE66EE66A610E0F
:10181000E66E000EE66E010ECBD8E552D6D0D1D8DA
:10182000000EDE6E020EDD6EE4D8040DF350146E71
:10183000156A020E0F0B05E0D89015321432E80637
:10184000FBE1D89014361536D89014361536D9CF1A
:10185000E9FFDACFEAFF1450EE261550ED22ACD89E
:10186000EF9EFD0EDB5002E1CED801D097D8EA22E0
:10187000DECFEEFFDDCFEDFF9FD8EF9C9DD8040EAD
:10188000E926000EEA22EF8C020EE15C02E2E16A38
:10189000E552E16E9AD095D8FE0EDB50156A530FD3
:1018A000146E0F0EFED888D8FD0EDBCFEFFFDBA441
:1018B00002D0E66A0CD9FD0EDBA203D0010EE66E63
:1018C00006D9020EE15C02E2E16AE552E16E7DD0EA
:1018D00078D8FE0EDB5005E135D965D8840EEF6E61
:1018E00005D087D81CD985D8010F19D9020EE15C23
:1018F00002E2E16AE552E16E68D063D8FD0EDB508A
:1019000002E04CD801D07FD8C6D856D816D9FB0EE5
:10191000DBCFEEFFFC0EDBCFEDFF4ED8EE52FA0E22
:10192000DBCFEFFF400E48D8E850EF16880E44D8C2
:10193000E850EF12FD0EDB5002E030D801D063D842
:10194000EA22EF74DECF14F0DDCF15F014C0F3FF00
:1019500015C0F4FF020EE15C02E2E16AE552E16EBD
:1019600034D0F4D864A812D0F6D8400EEE16EE6A41
:10197000EE6AEE6AF0D8EE7C11D8EA22EF74400EDF
:10198000146EE9D81450EF16E6D8EF7C1ED001D9BA
:10199000EE52080EEF6EFDD89DEF0DF0EED86B0EF7
:1019A000E926000E12006BC0E9FF6CC0EAFF1200CE
:1019B000E66EE66AB6EF0DF0DECFE9FFDDCFEAFFB7
:1019C0001200C4D8020EE1261200E552E7CFD9FF7B
:1019D0001200DAD8C9EF0DF063C0E9FF64C0EAFF76
:1019E000120024510F0BE96EEA6AD890E936EA3604
:1019F0001200FD0EDB50E824166EFE0EDB50040DC7
:101A0000F35016241200B9D8670EE926000E120012
:101A1000DF50040DF3CFE9FFF4CFEAFF000EE92613
:101A2000020EEA22EE6AEE6AEE6AEE6ADF2A12001F
:101A3000010EE66EE66AE66A540EE66E0F0EAEEF33
:101A40000DF084D8E6521200E66E7DC0E9FF7EC03C
:101A5000EAFF7D2B000E7E23E552E750EF6EDF0696
:101A6000010E1200DF50146E156A080E145C000E91
:101A700015581200000EE66EE66AE66EE66A12007F
:101A8000EA22EE50EFCFEAFFE96E1200280EEE6E6A
:101A9000020EED6E1200EA22EECFDEFFEDCFDDFF8B
:101AA0001200152214C0DEFF15C0DDFF1200EA6A25
:101AB000280FE96E020EEA22EF50E66E1200F722BE
:101AC0000900F5CF71F00A00F5CF72F01200FE0E9A
:101AD000DBCFE6FFA4DEE552E5521200010EE66E12
:101AE000E66A000EE66EE66A12002251F66EF76AAA
:101AF000D890F636F7361200D9CFE9FFDACFEAFFF1
:101B0000EE50ED101200020E706F4DDFEE52EF6AD4
:101B10004ADFC80EEF6E3BDFB9DFC9EF0DF0040DF1
:101B2000F3CF14F0F4CF15F0000E1426020EB9DF37
:101B3000840E42DFE850EF121200020EE926000E7A
:101B4000EA22120033D88C0EEF6E1200D9CFE6FFD6
:101B5000E1CFD9FF120022DF40EF0DF0E66E5BEC23
:101B600012F0146E050EE15E14501200BEEC10F07F
:101B7000146E060EE15E14501200FE0EEA6ADB34AB
:101B8000FE0BEA36E96E1200200EEE6E020EED6ECE
:101B9000120065C0E9FF66C0EAFF12001DDFCDDF5D
:101BA000C4EF0DF000DFC9DF46EF0DF0F0DEE9EF26
:021BB0000CF037
:0E1BB20034DB1100D8CFE4FFE0CFE4FFE46E97
:101BC0002DDBE550E5CFE0FFE5CFD8FF100004D8CE
:101BD00043EC08F032D8FCD702D816EF08F0F00E2C
:101BE000936EB00E946E0F0EC1127E6A7F6AF19EE4
:101BF0007888788A788C788E0001896B89C088F023
:101C000089C087F089C086F0000E906F916B8E6F4F
:101C10008F6B8C6F8D6B8A6F8B6BF40E986F010ED0
:101C2000996F98C096F0976F98C094F0956F98C090
:101C300092F0936F9A6B9B6B1200200E0001E76E7F
:101C40006019E8AE02D0E73402D0E750605D05E3EA
:101C50006450020B01E0120001D81200D9CFE6FF58
:101C6000E1CFD9FFE6528150100B100A01E0010EBE
:101C70001A6E8150200B200A01E0010E1A02F35067
:101C8000040DF3CF19F08150100B01E0010E186E16
:101C90008150200B200A01E0010E1802F350F324BA
:101CA000176E0001AC0502E0000E01D0010E166EA9
:101CB000C8DA01E0010E1614156E8150100B01E018
:101CC000010E146EBEDA01E0010E1402F35015107D
:101CD000172419240001866F0001AC0502E0000EF4
:101CE00001D0010E186E8150400B01E0010E176EFD
:101CF0008150100B01E0010E9FDA200B200A01E059
:101D0000010E87DA00018C2715508D230001AC05E8
:101D100002E0000E01D0010E186E8150400B01E070
:101D2000010E176E8150100B01E0010E85DA800B59
:101D3000800A01E0010E6DDA00018C5F15508D5BA9
:101D40000001AC0502E0000E01D0010E186E8150BA
:101D5000400B01E0010E176E8150100B01E0010EE7
:101D600017101810166E8150800B800A01E0010ECA
:101D700050DA00018E2715508F230001AC0502E0D8
:101D8000000E01D0010E186E8150400B01E0010ED3
:101D9000176E8150100B01E0010E4EDA100B100A85
:101DA00001E0010E36DA00018E5F15508F5B0001F5
:101DB000AC5102E0000E01D0010E196E42DA01E0D2
:101DC000010E186E8150100B100A01E0010E18145C
:101DD0001914176E8250200B200A01E0010E030D2A
:101DE000F3CF16F08150800B800A01E0010E16241B
:101DF0001702F3CF14F0156A14BE156814500001D1
:101E0000905F1550915B0001AC5102E0000E01D0D3
:101E1000010E196E16DA01E0010E186E8150100BDA
:101E2000100A01E0010E18141914176E8250800B6D
:101E3000800A01E0010E030DF3CF16F08250100B63
:101E4000100A01E0010E16241702F3CF14F0156AF0
:101E500014BE156814500001902715509123955118
:101E60008D19E8AE02D08D3504D08C51945D8D5122
:101E7000955905E294518C5F95518D5B872B0868CD
:101E8000096894C00DF095C00EF0CFD900018D51B6
:101E90000718E8AE02D0153404D014508C5D1550EC
:101EA0008D5905E294518C2795518D2387079751C1
:101EB0008F19E8AE02D08F3504D08E51965D8F51C8
:101EC000975905E296518E5F97518F5B882B086872
:101ED000096896C00DF097C00EF0A7D900018F5188
:101EE0000718E8AE02D0153404D014508E5D15509A
:101EF0008F5905E296518E2797518F238807995164
:101F00009119E8AE02D0913504D09051985D91516D
:101F1000995909E29851905F9951915BB80E986F69
:101F20000B0E996F892B98C014F099C015F0146CA2
:101F3000151E000E152291511518E8AE02D0153469
:101F400004D01450905D1550915909E29851902792
:101F500099519123B80E986F0B0E996F8907000164
:101F6000AA51AB1102E0000E01D0010E176E825093
:101F7000800B01E0010E166E8250200B01E0010E75
:101F8000156E8150800B01E0010E146E8250100B13
:101F900001E0010E141415141614171410E0100E9D
:101FA000AA1902E1270EAB1902E0000E01D0010EC2
:101FB000640E0001986F996B896B906B916B0001B7
:101FC000AA51AB1103E0AA07000EAB5BA807000EF5
:101FD000A95BA851A91149E1640EA86FA96B8250B1
:101FE000200B200A01E0010E146E8250800B800A43
:101FF00001E0010E141012E00A0E0001945F000EC1
:10200000955B500E95AF02D0D89003D0945D000E32
:10201000955909E2500E946F956B05D00001F40EAE
:10202000946F010E956F8150800B800A01E0010EC4
:10203000146E8250100B100A01E0010E141011E012
:102040000A0E965F000E975B500E97AF02D0D890A5
:1020500003D0965D000E975908E2500E966F976B6D
:1020600004D0F40E966F010E976F81B806D01E0E45
:102070000001946F956B966F976B8250200B200A2E
:1020800001E0010E166E8250800B800A01E0010E05
:10209000156E8150800B800A01E0010E146E825093
:1020A000100B100A01E0010E14101510161000019B
:1020B000AD6F8150100B01E0010E146EC2D801E02B
:1020C000010E141406E0AE5104E1AD5102E0010E20
:1020D000AC6FADC0AEF081BCAC6B00019A519B11EE
:1020E00002E1000E08D09AC0E9FF9BC0EAFFEF5062
:1020F000800B01E0010E00091EE186C034F287C0AA
:1021000035F288C036F289C037F2876B886B896BED
:10211000040EE66E340EE66E020EE66E010EE66EFC
:10212000E66E7DEC0CF0146E050EE15E1450F3CFFC
:102130009AF0F4CF9BF0E552E552E7CFD9FF1200B9
:10214000120012001200120025EF11F012001A0EF8
:10215000E66E010EE66E4BEC0CF0E552E552120015
:1021600064840001080E9C6F070E9D6F9C07000E93
:102170009D5B9C519D11FAE164941200D9CFE6FF5A
:10218000E1CFD9FFFD0EDBCF08F0FE0EDBCF09F06B
:10219000720E081801E1095033E0E868081802E1FE
:1021A0007F0E09182BE0740E081801E1095024E095
:1021B000750E081801E109501DE0730E081801E1C1
:1021C000095016E0030E081801E109500FE0020E55
:1021D000081801E1095008E0010E081801E1095052
:1021E00001E010D0B4DF0FD0B1DF0DD0ADDF0BD0E8
:1021F000A9DF09D0A5DF07D0A4DF05D0A4DF03D075
:10220000000001D000D0010E00D0E552E7CFD9FF89
:1022100012001602F350156AF3501200DACFE4FFF1
:10222000E652E552E5CFDAFF12002EEC12F006C0BE
:1022300014F007C015F0120017101810166E825017
:0A22400012008150400B400A12000A
:06224A00020120511F0BF0
:10225000010801E01200245101E01200060E215D88
:102260001EE12351230A1BE0010A0CE0030A17E1D7
:102270000001610514E10001360E716F230E726FCB
:10228000090E09D0000161050AE10001820E716F9B
:10229000230E726F340E746F756BC00E736F020174
:1022A0002051600BE842E842E842E842E842010877
:1022B00001E0120021510B0A26E0080A19E0090A80
:1022C00011E0080A05E00B0A23E0080A21E01200E9
:1022D0000001AF0E716F000E726F010E746F756B9F
:1022E000C10E0FD00001800E736F23C2AFF0120039
:1022F0000001B00E716F000E726F010E746F756B7E
:10230000810E736F12000001800E736F22C2B0F055
:022310001200B9
:0E2312001201000200000008EA22020003008F
:102320000102000109022200010100C0320904007B
:1023300000010301020009211101000122340007FC
:102340000581030400010403090424034200690019
:1023500074002000540072006100640065002000D9
:102360004F006E0065002C004C0054004400140324
:1023700050006100640020004D006F007500730084
:10238000650005010902A1010901A1000509190162
:102390002903150025019503750181029501750535
:1023A000810105010930093109381581257F75083A
:0E23B00095038106C0C0242346234A236E23D2
:0223BE001E0EF1
:1023C000F66E100EF76E000EF86E00010900F55063
:1023D000A36F0900F550A46F03E1A36701D03DD0BE
:1023E0000900F5509E6F0900F5509F6F0900F550E8
:1023F000A06F09000900F550E96E0900F550EA6E7A
:10240000090009000900F550A16F0900F550A26FFD
:1024100009000900F6CFA5F0F7CFA6F0F8CFA7F096
:102420009EC0F6FF9FC0F7FFA0C0F8FF0001A153B8
:1024300002E1A25307E00900F550EE6EA107F8E2B1
:10244000A207F9D7A5C0F6FFA6C0F7FFA7C0F8FFFF
:0C2450000001A307000EA45BBFD7120020
:04245C0009C013F0B0
:1024600008C012F008500D02F4CF07F0F3CF06F0C9
:1024700009500E02F4CF09F0F3CF08F00D02F3502B
:102480000726F4500822E86A092212500E02F3507F
:102490000726F4500822E86A09220EAE54EF12F023
:1024A0001250085E1350095A13AE000C0D50085E0E
:0624B0000E50095A000C59
:0A24B600FE0EE3CFE9FFFF0EE3CFB7
:1024C000EAFFE9CFF3FFEACFF4FFFB0EE35003E1AD
:1024D000FC0EE35009E0FB0EE30602E2FC0EE3060D
:0A24E000FD0EE350EE6EF1D712007E
:0624EA00000EF36E00EE8F
:1024F00000F0030E01D81200EA6002D0EE6AFCD7A9
:0A250000F350E9601200EE6AFCD708
:06250A0011EE00F021EECD
:1025100000F0F86A019CDFEC11F003EC08F0E7EC46
:062520000DF0FBD71200D4
:020000040030CA
:0100000000FF
:0100010032CC
:0100020001FC
:010003001EDE
:0100050000FA
:0100060001F8
:0100080003F4
:01000900C036
:01000A0003F2
:01000B00E014
:01000C0003F0
:01000D0040B2
:00000001FF
