:020000040000FA
:0600000061EF10F0120098
:0600080004EF08F01200F5
:060018000CEF08F01200DD
:0610000061EF10F0120088
:021006001200D6
:06100800D9EF0DF012000B
:01100E0004DD
:06101800DBEF0DF01200F9
:02101E000100CF
:0C1020000E1000009D0000000100000008
:04102C0021EC0DF0B6
:101030000F015F6B626A160E616E9F0E5B6F7B0E17
:10104000606E648C5C6B18EC0DF0649CDF6A32ECB3
:101050000DF003E208EC0DF0FAD70F01160E536FF6
:1010600062A602D06296FCD70001736B786B796B35
:101070007A6B6498080E6B6F020E6C6F616B606B1D
:10108000E552E5EF0CF021EC0DF00001605110E1AC
:10109000646A606A160E616E0F019F0E5B6F7B0EB5
:1010A000606E64B602D06486FCD70001010E606FEA
:1010B000600508E164BA06D0626A606A6080608890
:1010C000020E606F6250040B05E06050040B02E0FA
:1010D00062948BD864B24AD06250010B12E0605027
:1010E000010B0FE0A3DF0001040E606F0201200E70
:1010F000026F020E036F080E016F006B8C0E00135F
:1011000062906250100B05E06050100B02E065D851
:1011100062986250400B09E06050400B06E06EECB4
:101120000DF0730ED8EC0CF0629C6250200B04E0C2
:101130006050200B01E03DD86250020B0CE0605083
:10114000020B09E06EEC0DF0E6687F0EE66EB6EC81
:101150000DF00F015F6B040E0001E76E6019E8AE41
:1011600002D0E73402D0E750605D02E2A1941ED0C5
:1011700060A61BD0DF6A040EDF5C17E262A615D002
:1011800063CF80F06296780E0001801502E138D8B6
:101190000AD0000EE66EE66A800EE66E000EE66E7F
:1011A000720ED8EC0CF0DF2AE6D7A194E552E5EFF9
:1011B0000CF00F0153A10FD0ECEC0CF0EF508008B5
:1011C00009E1D3EC0CF0EF50840804E1ECEC0CF0F6
:1011D0008C0EEF6E5391629A120060846298648262
:1011E0003AEC0DF0750ED8EF0CF03AEC0DF0740EF1
:1011F000DFDB6492609462A402D06294FCD7120098
:1012000021EC0DF0FD0E000180153EE17E0E8015F3
:10121000E8407F0B040DF3CF63F0F4CF64F0000ED1
:101220006327020E642363C065F064C066F06575D1
:10123000D3DBEF503C0BE842E8420D0823E1CCDB66
:101240009DEC0DF0EECF0BF0EFCF0CF0280E0B184D
:1012500017E1020E0C1814E1CEEC0DF0DF6A32EC4F
:101260000DF00EE2DF5057EC0DF0DF50EA6A200F70
:10127000E96E020EEA22E552E750EF6EDF2AEFD761
:101280000AD807D01AD805D0FD0E8015040801E150
:1012900022D8E5529AD387DBEF50800B02E083DB44
:1012A000EF6A00016F6B706B746B756B736B67D853
:1012B000E1DB030E7DDBF3EF0AF0020E0001705D4F
:1012C00002E180EF0BF037D80001815102E1A2EF7B
:1012D0000DF0816B1200B5DB66DBEF50400B01E0D7
:1012E000010EDF6E00016B75080E605D0CE122C21D
:1012F0005CFF0F015C51000803E20001100E02D0F8
:101300000001040E606F700513E1D2EC0DF0A5D959
:10131000020E00016F5D03E146DB840E07D0DF5053
:1013200003E141DBC80E02D03EDB880EEF6E01D038
:1013300002D8E5524AD345DB0001706B34DBEF6A1B
:10134000040E6B190B6E6CC00CF0DE6E6CC0DDFF12
:1013500033DBEF6A78AF0CD07B517C1107E005D00E
:101360007CC0FAFF00017B51F96EFADF0001789F23
:10137000020EE15C02E2E16AE552E16E26D302016F
:101380002051600BE842E842E842E842E8420009A6
:1013900001E0120021510C0A45E00B0A3FE00C0A63
:1013A00031E0010A22E00B0A1EE0020A1CE0030AF7
:1013B00018E0080A10E0010A0CE00F0A08E0030A2E
:1013C00001E012000001738F080E606F120073EFCE
:1013D0000AF0DCEF0BF00001610E716F000E726F0E
:1013E0000CD0B4EF0AF013EF0AF024510001716F32
:1013F000726B620E7127000E72237381010E746F7F
:10140000738F12000001738F02012451EA6A620F88
:10141000E96E000EEA2222C2EFFF12002BDB020E61
:10142000D8EF0CF0120092DB040EE1260201220537
:1014300010E120511F0B00090CE10001738F030E16
:101440000201215D04E10001010E7F6F02D0000165
:101450007F6B0201225140E120511F0B02083CE149
:1014600024510F0B000938E00001738F020124BFE3
:1014700005D0B7DA670EE926000E04D0B2DA6B0E9B
:10148000E926000E08DB030E215D03E195DA840EE8
:1014900022D024510F0B0C6A530F0B6E0F0E0C222F
:1014A000020E0BC0DBFF030E0CC0DBFF020EDBCF16
:1014B000E9FF030EDBCFEAFFEF9024AF06D07CDA22
:1014C000EF6ADF7479DA400E06D076DA880EEF6EB6
:1014D000DF7472DAC80EEF6E040EE15C02E2E16ABC
:1014E000E552E16E72D2800E0201205D3CE1000106
:1014F000C00E736F02012351030A1EE0010A09E0C6
:10150000030A2FE100011C0E716F1E0E726F120E86
:1015100022D0EBDAFC0EF6261E0ED1DA020E000106
:10152000F76A7125F66E7251F7220900F5CF74F053
:101530000A00F5CF75F01200030E225D0FE2D5DA36
:10154000FE0EF6261E0EBBDA71C0F6FF72C0F7FF64
:101550000800F5500001746F756B12000001736B89
:1015600012000001736B12002CDA0201286B296B48
:1015700020511F0B020A11E0030A0CE0010A22E1CC
:101580000001738F0201288100017F051BE1020128
:10159000288318D00001738F15D00001738F0201CA
:1015A00024BF05D01EDA670EE926000E04D019DA32
:1015B0006B0EE926000E6FDAFFD9EF50040B02E044
:1015C000010E286F000173AF07D0280E716F020E55
:1015D000726F7381020E746F020EE15C02E2E16AC7
:1015E000E552E16EF2D16498000173BF08D078AF84
:1015F00002D089DA2AD0A6DAD6D9840E27D078BFCD
:101600002BD0020120AF24D0000174510201265DCD
:10161000000175510201275904E226C274F027C265
:1016200075F01BD80001010E706FC0DA800EEF6EEE
:10163000816BD2D9EE52080EEF6EB0DACDD9840E9E
:10164000EF6E010E816FAEDAAED9C80EEF6E1200EA
:10165000000159DAC80EEF6E1200B3D90001080E6E
:10166000745D000E75590DE274C0DEFF75C0DDFFBC
:101670006F5102E1010E03D06F0506E1020E6F6F9C
:1016800003D0080EDE6EDD6A8ED9EF928CD9EF9012
:101690008AD9010EDB50EF1286D9EE52DFCFEFFF71
:1016A000000EDB50745F010EDB50755B280E7D6F02
:1016B000020E7E6F73B10FD01FDA1BE071C0F6FF10
:1016C00072C0F7FF712B000E72230800F550BCD9D1
:1016D000F3E2DB06F1D710DA0CE071C0E9FF72C06B
:1016E000EAFF712B000E7223EF50AED9F4E2DB0655
:1016F000F2D7020EE15C02E2E16AE552E16E65D1E9
:1017000060D96AD9EE52EFCFDFFFDFCF0BF00B507D
:101710000001795D000E7A5903E279C0DFFF09D03C
:10172000DF500B6E0C6AE850795D796F0C507A5976
:101730007A6F010EDB6ADF50F36E010EDBCFF4FF30
:10174000F350F45C10E2010EDB50B1D976C0E9FF32
:1017500077C0EAFF762B000E7723E552E750EF6E55
:10176000010EDB2AE8D7000ED8807955000E7A5595
:101770000DE20DD98BD930D9EF50400B03E109DAD6
:10178000C80E02D006DA880EEF6E0FD00FDA840E84
:10179000EF6E7B517C1107E005D07CC0FAFF0001A1
:1017A0007B51F96EFADF0001789F020EE15C02E2E4
:1017B000E16AE552E16E09D144D90001738F38D94D
:1017C000DF6A50D902E224D9FCD7648C010EE66EA0
:1017D000E66AE66A620EE66E000EC0D9649C0001FD
:1017E000080E6B6F020E6C6F000E636F020E646F5B
:1017F00063C065F0666F22C261F0615103E1100EB3
:10180000606F0BD0200E606F010EE66EE66A610E0F
:10181000E66E000EE66E010ECBD8E552D6D0D1D8DA
:10182000000EDE6E020EDD6EE4D8040DF3500B6E7A
:101830000C6A020E0F0B05E0D8900C320B32E80652
:10184000FBE1D8900B360C36D8900B360C36D9CF3E
:10185000E9FFDACFEAFF0B50EE260C50ED22ACD8B0
:10186000EF9EFD0EDB5002E1CED801D097D8EA22E0
:10187000DECFEEFFDDCFEDFF9FD8EF9C9DD8040EAD
:10188000E926000EEA22EF8C020EE15C02E2E16A38
:10189000E552E16E9AD095D8FE0EDB500C6A530FDC
:1018A0000B6E0F0EFED888D8FD0EDBCFEFFFDBA44A
:1018B00002D0E66A0CD9FD0EDBA203D0010EE66E63
:1018C00006D9020EE15C02E2E16AE552E16E7DD0EA
:1018D00078D8FE0EDB5005E135D965D8840EEF6E61
:1018E00005D087D81CD985D8010F19D9020EE15C23
:1018F00002E2E16AE552E16E68D063D8FD0EDB508A
:1019000002E04CD801D07FD8C6D856D816D9FB0EE5
:10191000DBCFEEFFFC0EDBCFEDFF4ED8EE52FA0E22
:10192000DBCFEFFF400E48D8E850EF16880E44D8C2
:10193000E850EF12FD0EDB5002E030D801D063D842
:10194000EA22EF74DECF0BF0DDCF0CF00BC0F3FF1B
:101950000CC0F4FF020EE15C02E2E16AE552E16EC6
:1019600034D0F4D864A812D0F6D8400EEE16EE6A41
:10197000EE6AEE6AF0D8EE7C11D8EA22EF74400EDF
:101980000B6EE9D80B50EF16E6D8EF7C1ED001D9CC
:10199000EE52080EEF6EFDD89DEF0DF0EED86B0EF7
:1019A000E926000E12006BC0E9FF6CC0EAFF1200CE
:1019B000E66EE66AB6EF0DF0DECFE9FFDDCFEAFFB7
:1019C0001200C4D8020EE1261200E552E7CFD9FF7B
:1019D0001200DAD8C9EF0DF063C0E9FF64C0EAFF76
:1019E000120024510F0BE96EEA6AD890E936EA3604
:1019F0001200FD0EDB50E8240D6EFE0EDB50040DD0
:101A0000F3500D241200B9D8670EE926000E12001B
:101A1000DF50040DF3CFE9FFF4CFEAFF000EE92613
:101A2000020EEA22EE6AEE6AEE6AEE6ADF2A12001F
:101A3000010EE66EE66AE66A540EE66E0F0EAEEF33
:101A40000DF084D8E6521200E66E7DC0E9FF7EC03C
:101A5000EAFF7D2B000E7E23E552E750EF6EDF0696
:101A6000010E1200DF500B6E0C6A080E0B5C000EAC
:101A70000C581200000EE66EE66AE66EE66A120088
:101A8000EA22EE50EFCFEAFFE96E1200280EEE6E6A
:101A9000020EED6E1200EA22EECFDEFFEDCFDDFF8B
:101AA00012000C220BC0DEFF0CC0DDFF1200EA6A40
:101AB000280FE96E020EEA22EF50E66E1200F722BE
:101AC0000900F5CF71F00A00F5CF72F01200FE0E9A
:101AD000DBCFE6FFA4DEE552E5521200010EE66E12
:101AE000E66A000EE66EE66A12002251F66EF76AAA
:101AF000D890F636F7361200D9CFE9FFDACFEAFFF1
:101B0000EE50ED101200020E706F4DDFEE52EF6AD4
:101B10004ADFC80EEF6E3BDFB9DFC9EF0DF0040DF1
:101B2000F3CF0BF0F4CF0CF0000E0B26020EB9DF52
:101B3000840E42DFE850EF121200020EE926000E7A
:101B4000EA22120033D88C0EEF6E1200D9CFE6FFD6
:101B5000E1CFD9FF120022DF40EF0DF0E66E37EC47
:101B600010F00B6E050EE15E0B50120094EC0EF0BF
:101B70000B6E060EE15E0B501200FE0EEA6ADB34BD
:101B8000FE0BEA36E96E1200200EEE6E020EED6ECE
:101B9000120065C0E9FF66C0EAFF12001DDFCDDF5D
:101BA000C4EF0DF000DFC9DF46EF0DF0F0DEE9EF26
:021BB0000CF037
:0E1BB2002DD91100D8CFE4FFE0CFE4FFE46EA0
:101BC00026D9E550E5CFE0FFE5CFD8FF100004D8D7
:101BD00043EC08F019D8FCD70F0EC11202D816EF4B
:101BE00008F0F00E936EB00E946E0F0EC1127E6A66
:101BF0007F6AF19E7888788A788C788E0001866B6F
:101C0000876B886B896B1200200E0001E76E6019EC
:101C1000E8AE02D0E73402D0E750605D05E36450DF
:101C2000020B01E0120001D8120000018651871159
:101C300002E1000E08D086C0E9FF87C0EAFFEF503E
:101C4000800B01E0010E000943E10201316B326BB0
:101C500082B803D0520E336F08D08150800B800AB7
:101C600001E0010E510DF3CF33F282BE03D0500ECE
:101C7000346F08D08250200B200A01E0010E4F0D76
:101C8000F3CF34F28150400B400A01E0010E280DE1
:101C9000F3CF35F28150200B200A01E0010EE10D57
:101CA000F3CF36F28150100B100A01E0010E2C0D1B
:101CB000F3CF37F2386B080EE66E310EE66E020E89
:101CC000E66E010EE66E9BD8F3CF86F0F4CF87F078
:101CD0001200120012001200120082EF0FF0120028
:101CE0001E0EE66E010EE66E4BEC0CF0E552E55270
:101CF000010EE66E300EE66E020EE66EE66A010E2C
:101D00007ED8F3CF88F0F4CF89F01200648400010C
:101D1000080E8F6F070E906F8F07000E905B8F512C
:101D20009011FAE164941200D9CFE6FFE1CFD9FF18
:101D3000FD0EDBCF06F0FE0EDBCF07F0720E0618AD
:101D400001E1075033E0E868061802E17F0E07184A
:101D50002BE0740E061801E1075024E0750E0618FA
:101D600001E107501DE0730E061801E1075016E06F
:101D7000030E061801E107500FE0020E061801E1FC
:101D8000075008E0010E061801E1075001E010D0ED
:101D9000A7DF0FD0A4DF0DD0A0DF0BD09CDF09D0D0
:101DA00098DF07D097DF05D097DF03D0000001D080
:101DB00000D0010E00D0E552E7CFD9FF120000019C
:101DC000280E766F020E776F080E796F7A6BDA0E37
:101DD0007B6F1D0E7C6F788F1200020128A103D04B
:101DE0008B808B8202D08B908B9200018A6BE00EED
:101DF0008B6F220E8C6F020E8D6F8E6B1200E66E53
:101E00007DEC0CF00B6E050EE15E0B501200DACF8C
:0C1E1000E4FFE652E552E5CFDAFF1200D5
:041E1C0012010002AD
:101E200000000008EA22040001000102000109028A
:101E30002900010100C03209040000020301010071
:101E4000092111010001223F00070581030800015B
:101E5000070501030800010403090434034D006968
:101E600000630072006F006300680069007000206A
:101E70000054006500630068006E006F006C006F26
:101E80000067007900200049006E0063002E002EDC
:101E9000034B006500790062006F0061007200640E
:101EA000002000440065006D006F0000000000008D
:101EB0000000000000000000000000000005010913
:101EC00006A101050719E029E7150025017501950F
:101ED00008810295017508810395057501050819AA
:101EE0000129059102950175039103950675081561
:101EF0000025650507190029658100C02E1E571EA3
:041F00005B1E8F1EB7
:0C1F0400020120511F0B010801E0120037
:101F1000245101E01200060E215D1EE12351230A27
:101F20001BE0010A0CE0030A17E10001610514E15E
:101F30000001400E716F1E0E726F090E09D0000174
:101F400061050AE10001BD0E716F1E0E726F3F0E3A
:101F5000746F756BC00E736F02012051600BE84205
:101F6000E842E842E842E842010801E0120021515B
:101F70000B0A28E0080A1BE0090A13E0080A07E038
:101F80000B0A03E0080A23E01200DFEF0EF0000165
:101F90009B0E716F000E726F010E746F756BC10E28
:101FA0000FD00001800E736F23C29BF0120000015E
:101FB0009C0E716F000E726F010E746F756B810E47
:101FC000736F12000001800E736F22C29CF012002A
:101FD0001E0EF66E100EF76E000EF86E0001090070
:101FE000F550966F0900F550976F03E1966701D0A1
:101FF0003DD00900F550916F0900F550926F09002E
:10200000F550936F09000900F550E96E0900F5508D
:10201000EA6E090009000900F550946F0900F550B7
:10202000956F09000900F6CF98F0F7CF99F0F8CF37
:102030009AF091C0F6FF92C0F7FF93C0F8FF00013D
:10204000945302E1955307E00900F550EE6E9407B2
:10205000F8E29507F9D798C0F6FF99C0F7FF9AC044
:0E206000F8FF00019607000E975BBFD7120035
:02206E00FE0E64
:10207000E3CFE9FFFF0EE3CFEAFFE9CFF3FFEACFBB
:10208000F4FFFB0EE35003E1FC0EE35009E0FB0E0E
:10209000E30602E2FC0EE306FD0EE350EE6EF1D71E
:0220A00012002C
:0E20A200000EF36E00EE00F0030E01D81200E7
:1020B000EA6002D0EE6AFCD7F350E9601200EE6AE3
:0220C000FCD74B
:0E20C20011EE00F021EE00F0F86A0A9CE8EC46
:0E20D0000FF003EC08F0E7EC0DF0FBD7120068
:020000040030CA
:0100000000FF
:0100010032CC
:0100020001FC
:010003001EDE
:0100050000FA
:0100060001F8
:0100080003F4
:01000900C036
:01000A0003F2
:01000B00E014
:01000C0003F0
:01000D0040B2
:00000001FF
