:020000040000FA
:06000000D5EF12F0120022
:0600080004EF08F01200F5
:060018000CEF08F01200DD
:06100000D5EF12F0120012
:021006000000E8
:061008008AEF10F0120057
:02100E001200CE
:0610180093EF10F012003E
:02101E00D9CF28
:10102000E6FFE1CFD9FFE6520F015F6B626A160E51
:10103000616E9F0E5B6F7B0E606E648C5C6B010E4D
:10104000E66EE66AE66A540EE66E0F0EE66EABECEE
:1010500012F00B6E050EE15E0B50649CDF6ADF50F0
:101060000B6E0C6A080E0B5C000E0C5810E2DF5081
:10107000040DF3CFE9FFF4CFEAFF000EE926020EDC
:10108000EA22EE6AEE6AEE6AEE6ADF2AE8D70F011C
:10109000160E536F62A602D06296FCD70001736BE6
:1010A000786B796B7A6B6498080E6B6F020E6C6FBD
:1010B000616B606BE552E552E7CFD9FF1200D9CFE3
:1010C000E6FFE1CFD9FFE6520001605117E106D0FB
:1010D000646A606A0001606BA194AAD0646A606A65
:1010E000160E616E0F019F0E5B6F7B0E606E64B615
:1010F00002D06486FCD70001010E606F600508E134
:1011000064BA06D0626A606A60806088020E606FAE
:101110006250040B05E06050040B02E06294B9D801
:1011200064A202D0A19484D06250010B12E06050FE
:10113000010B0FE074DF0001040E606F0201200E4E
:10114000026F020E036F080E016F006B8C0E00130E
:1011500062906250100B05E06050100B02E087D8DF
:1011600062986250400B13E06050400B10E0010E9B
:10117000E66EE66A000EE66EE66A730EE66EE66AF4
:101180004CEC11F00B6E060EE15E0B50629C62504F
:10119000200B04E06050200B01E04FD86250020B9E
:1011A00014E06050020B11E0010EE66EE66A000EDC
:1011B000E66EE66AE6687F0EE66E4CEC11F00B6EAA
:1011C000060EE15E0B500F015F6B040E0001E76E2F
:1011D0006019E8AE02D0E73402D0E750605D02E269
:1011E000A19426D060A623D0DF6A040EDF5C1FE244
:1011F00062A61AD063CF80F06296780E0001801547
:1012000002E15CD810D0000EE66EE66A800EE66E53
:10121000000EE66E720EE66EE66A4CEC11F00B6E96
:10122000060EE15E0B5001D002D0DF2ADED7A1947A
:10123000E552E552E7CFD9FF12000F0153A115D0B7
:1012400063C0E9FF64C0EAFFEF5080080DE16BC0A6
:10125000E9FF6CC0EAFFEF50840806E163C0E9FFD4
:1012600064C0EAFF8C0EEF6E5391629A12006084A4
:1012700062986482000EE66EE66AE66EE66A750EB5
:10128000E66EE66A4CEC11F00B6E060EE15E0B505A
:101290001200000EE66EE66AE66EE66A740EE66E10
:1012A000E66A4CEC11F00B6E060EE15E0B50649298
:1012B000609462A402D06294FCD71200D9CFE6FFFA
:1012C000E1CFD9FFE652FD0E000180155AE17E0EF6
:1012D0008015E8407F0B040DF3CF63F0F4CF64F08A
:1012E000000E6327020E642363C065F064C066F0DD
:1012F000657563C0E9FF64C0EAFFEF503C0BE8424C
:10130000E8420D083CE163C0E9FF64C0EAFF020E59
:10131000E926000EEA22EECF0BF0EFCF0CF0280EFC
:101320000B1802E1020E0C1828E163C0E9FF64C04B
:10133000EAFF020EE926000EEA22200EEE6E020EF1
:10134000ED6EDF6ADF500B6E0C6A080E0B5C000E50
:101350000C5813E2DF50EA6A280FE96E020EEA2207
:10136000EF50E66EDF50EA6A200FE96E020EEA22C5
:10137000E552E750EF6EDF2AE5D70DD801D02ED821
:1013800005D0FD0E8015040801E14ED8E552E55266
:10139000E7CFD9FF12006BC0E9FF6CC0EAFFEF5046
:1013A000800B05E06BC0E9FF6CC0EAFFEF6A00014B
:1013B0006F6B706B746B756B736BB9D8000EE66EE8
:1013C000E66AE66EE66A030EE66EE66A4CEC11F03B
:1013D0000B6E060EE15E0B5042EF0CF0020E0001A8
:1013E000705D02E1AFDB1FD06FD8000181511AE1BF
:1013F00065C0E9FF66C0EAFFEE52080EEF6E65C0F9
:10140000E9FF66C0EAFF020EE926000EEA22200E7E
:10141000EE6E020EED6E65C0E9FF66C0EAFF8C0E4F
:10142000EF6E01D0816B1200D9CFE6FFE1CFD9FF7B
:10143000E6526BC0E9FF6CC0EAFFEF50400B01E0E1
:10144000010EDF6E00016B75080E605D0DE122C2BA
:101450005CFF0F015C51000804E20001100E606F98
:1014600003D00001040E606F700528E16BC0E9FF36
:101470006CC0EAFF020EE926000EEA22280EEE6E8C
:10148000020EED6ED4DA020E00016F5D07E16BC053
:10149000E9FF6CC0EAFF840EEF6E0FD0DF5007E16A
:1014A0006BC0E9FF6CC0EAFFC80EEF6E06D06BC0E0
:1014B000E9FF6CC0EAFF880EEF6E01D005D8E55257
:1014C000E552E7CFD9FF1200D9CFE6FFE1CFD9FF30
:1014D000020EE1260001706B6BC0E9FF6CC0EAFFF1
:1014E000EF6A040E6B190B6E6CC00CF00BC0DEFFC4
:1014F0000CC0DDFFDECFE9FFDDCFEAFFEF6A78AF9A
:101500000CD07B517C1107E005D07CC0FAFF0001B4
:101510007B51F96EFADF0001789F020EE15C02E276
:10152000E16AE552E16EE552E7CFD9FF1200020110
:101530002051600BE842E842E842E842E8420009F4
:1015400001E058D021510C0A54E00B0A43E00C0A88
:1015500035E0010A26E00B0A22E0020A20E0030A35
:101560001CE0080A10E0010A0CE00F0A08E0030A78
:1015700001E03FD00001738F080E606F3BD0C7D8E9
:1015800039D07EDB37D00001610E716F000E726FB3
:101590007381010E746F738F2DD013D92BD02BD87C
:1015A00029D024510001716F726B620E7127000EF9
:1015B00072237381010E746F738F1CD00001738FBF
:1015C00002012451EA6A620FE96E000EEA2222C289
:1015D000EFFF10D0000EE66EE66AE66EE66A020ED7
:1015E000E66EE66A4CEC11F00B6E060EE15E0B50F7
:1015F00001D000D01200D9CFE6FFE1CFD9FF040E11
:10160000E1260201220510E120511F0B00090CE127
:101610000001738F030E0201215D04E10001010E40
:101620007F6F02D000017F6B0201225166E12051E1
:101630001F0B020862E124510F0B00095EE000015C
:10164000738F020124BF10D024510F0BE96EEA6A98
:10165000D890E936EA36670EE926000EEA22EECF88
:10166000DEFFEDCFDDFF0FD024510F0BE96EEA6AEC
:10167000D890E936EA366B0EE926000EEA22EECF64
:10168000DEFFEDCFDDFF030E215D07E1DECFE9FFD9
:10169000DDCFEAFF840EEF6E30D024510F0B0C6AC1
:1016A000530F0B6E0F0E0C22020E0BC0DBFF030E4E
:1016B0000CC0DBFF020EDBCFE9FF030EDBCFEAFF3E
:1016C000EF9024AF0DD0DECFE9FFDDCFEAFFEF6A68
:1016D000DF74DECFE9FFDDCFEAFF400EEF6E0DD005
:1016E000DECFE9FFDDCFEAFF880EEF6EDF74DECFDD
:1016F000E9FFDDCFEAFFC80EEF6E040EE15C02E207
:10170000E16AE552E16EE552E7CFD9FF1200800EA3
:101710000201205D55E10001C00E736F02012351EB
:10172000030A2EE0010A0EE0030A03E00001736BD6
:1017300047D000010C0E716F240E726F120E746F81
:10174000756B3ED02251F66EF76AD890F636F736B2
:101750007F0EF626240EF7220900F5CF71F00A005D
:10176000F5CF72F0020E0001F76A7125F66E725124
:10177000F7220900F5CF74F00A00F5CF75F020D0FC
:10178000030E225D1AE22251F66EF76AD890F63601
:10179000F736810EF626240EF7220900F5CF71F0F8
:1017A0000A00F5CF72F071C0F6FF72C0F7FF0800B3
:1017B000F5500001746F756B02D00001736B00D09F
:1017C0001200D9CFE6FFE1CFD9FF020EE1260201D8
:1017D000286B296B20511F0B020A12E0030A0DE04F
:1017E000010A01E03BD00001738F02012881000152
:1017F0007F0502E10201288331D00001738F2ED0D2
:101800000001738F020124BF10D024510F0BE96E29
:10181000EA6AD890E936EA36670EE926000EEA222F
:10182000EECFDEFFEDCFDDFF0FD024510F0BE96EC1
:10183000EA6AD890E936EA366B0EE926000EEA220B
:10184000EECFDEFFEDCFDDFFDECFE9FFDDCFEAFF3C
:10185000EF50040B02E0010E286F00D0000173AFBF
:1018600007D0280E716F020E726F7381020E746FB3
:10187000020EE15C02E2E16AE552E16EE552E7CF79
:10188000D9FF12006498000173BF4AD078AF28D006
:10189000020E706F6BC0E9FF6CC0EAFFEE52EF6A98
:1018A0006BC0E9FF6CC0EAFFC80EEF6E65C0E9FFD0
:1018B00066C0EAFFEE52080EEF6E65C0E9FF66C033
:1018C000EAFF020EE926000EEA22280EEE6E020E54
:1018D000ED6E65C0E9FF66C0EAFFC80EEF6E1FD06F
:1018E00065C0E9FF66C0EAFFEE52080EEF6E65C004
:1018F000E9FF66C0EAFF020EE926000EEA22200E8A
:10190000EE6E020EED6E65C0E9FF66C0EAFF8C0E5A
:10191000EF6E6BC0E9FF6CC0EAFF840EEF6E86D0FD
:1019200078BF84D0020120AF59D000017451020168
:10193000265D000175510201275904E226C274F0A8
:1019400027C275F074D80001010E706F65C0E9FF01
:1019500066C0EAFFEE52080EEF6E65C0E9FF66C092
:10196000EAFF020EE926000EEA22200EEE6E020EBB
:10197000ED6E65C0E9FF66C0EAFF800EEF6E816B19
:1019800063C0E9FF64C0EAFFEE52080EEF6E63C069
:10199000E9FF64C0EAFF020EE926000EEA22200EEB
:1019A000EE6E020EED6E63C0E9FF64C0EAFF840EC6
:1019B000EF6E010E816F6BC0E9FF6CC0EAFF020E93
:1019C000E926000EEA22280EEE6E020EED6E6BC0C6
:1019D000E9FF6CC0EAFFC80EEF6E28D00001020ECE
:1019E000706F6BC0E9FF6CC0EAFFEE52EF6A6BC02C
:1019F000E9FF6CC0EAFFC80EEF6E65C0E9FF66C084
:101A0000EAFFEE52080EEF6E65C0E9FF66C0EAFF1E
:101A1000020EE926000EEA22280EEE6E020EED6E90
:101A200065C0E9FF66C0EAFFC80EEF6E1200D9CFAD
:101A3000E6FFE1CFD9FF020EE1260001080E745D3A
:101A4000000E75590EE274C0DEFF75C0DDFF6F51E8
:101A500003E1010E6F6F04D06F0502E1020E6F6F9C
:101A600003D0080EDE6EDD6A6BC0E9FF6CC0EAFFD2
:101A7000EF926BC0E9FF6CC0EAFFEF906BC0E9FF2B
:101A80006CC0EAFF010EDB50EF126BC0E9FF6CC0C7
:101A9000EAFFEE52DFCFEFFF000EDB50745F010E66
:101AA000DB50755B280E7D6F020E7E6F73B121D007
:101AB000D9CFE9FFDACFEAFFEE50ED1019E071C09F
:101AC000F6FF72C0F7FF712B000E72230800F5506D
:101AD000E66E7DC0E9FF7EC0EAFF7D2B000E7E230F
:101AE000E552E750EF6EDF06010E01E2DB06E0D7BC
:101AF0001FD0D9CFE9FFDACFEAFFEE50ED1018E0A2
:101B000071C0E9FF72C0EAFF712B000E7223EF5023
:101B1000E66E7DC0E9FF7EC0EAFF7D2B000E7E23CE
:101B2000E552E750EF6EDF06010E01E2DB06E1D77A
:101B3000020EE15C02E2E16AE552E16EE552E7CFB6
:101B4000D9FF1200D9CFE6FFE1CFD9FF020EE1267F
:101B500063C0E9FF64C0EAFFEE52EFCFDFFFDFCFE3
:101B60000BF00B500001795D000E7A5903E279C049
:101B7000DFFF09D0DF500B6E0C6A0B50795D796F77
:101B80000C507A597A6F010EDB6ADF50F36E010E4A
:101B9000DBCFF4FFF350F45C16E2010EDB50EA6A8F
:101BA000280FE96E020EEA22EF50E66E76C0E9FFDA
:101BB00077C0EAFF762B000E7723E552E750EF6EF1
:101BC000010EDB2AE2D7000ED8807955000E7A5537
:101BD00028E265C0E9FF66C0EAFFEE52080EEF6E2C
:101BE00065C0E9FF66C0EAFF020EE926000EEA22A0
:101BF000280EEE6E020EED6E63C0E9FF64C0EAFFD0
:101C0000EF50400B07E165C0E9FF66C0EAFFC80E70
:101C1000EF6E06D065C0E9FF66C0EAFF880EEF6E82
:101C200025D065C0E9FF66C0EAFFEE52080EEF6EF0
:101C300065C0E9FF66C0EAFF020EE926000EEA224F
:101C4000200EEE6E020EED6E65C0E9FF66C0EAFF83
:101C5000840EEF6E7B517C1107E005D07CC0FAFF4B
:101C600000017B51F96EFADF0001789F020EE15C02
:101C700002E2E16AE552E16EE552E7CFD9FF1200D8
:101C8000D9CFE6FFE1CFD9FFE6520001738F010EF5
:101C9000E66EE66AE66A540EE66E0F0EE66EABEC92
:101CA00012F00B6E050EE15E0B50DF6ADF500B6E1B
:101CB0000C6A080E0B5C000E0C5810E2DF50040D8D
:101CC000F3CFE9FFF4CFEAFF000EE926020EEA2285
:101CD000EE6AEE6AEE6AEE6ADF2AE8D7648C010EDD
:101CE000E66EE66AE66A620EE66E000EE66EABEC43
:101CF00012F00B6E050EE15E0B50649C0001080EA5
:101D00006B6F020E6C6F000E636F020E646F63C028
:101D100065F064C066F022C261F0615103E1100E0B
:101D2000606F12D0200E606F010EE66EE66A610EE3
:101D3000E66E000EE66E010EE66EE66A4CEC11F001
:101D40000B6E060EE15E0B50E552E552E7CFD9FF70
:101D50001200D9CFE6FFE1CFD9FF020EE126000E37
:101D6000DE6E020EDD6EFD0EDB50E8240D6EFE0E03
:101D7000DB50040DF3500D24040DF3500B6E0C6A70
:101D8000020E0F0B05E0D8900C320B32E806FBE197
:101D9000D8900B360C36D8900B360C36D9CFE9FFDD
:101DA000DACFEAFF0B50EE260C50ED22DECFE9FF32
:101DB000DDCFEAFFEF9EFD0EDB500FE1FE0EEA6A7B
:101DC000DB34FE0BEA36E96E670EE926000EEA22E6
:101DD000DECFEEFFDDCFEDFF0ED0FE0EEA6ADB3484
:101DE000FE0BEA36E96E6B0EE926000EEA22DECF24
:101DF000EEFFDDCFEDFFDECFE9FFDDCFEAFFEF9CA9
:101E0000DECFE9FFDDCFEAFF040EE926000EEA226D
:101E1000EF8C020EE15C02E2E16AE552E16EE5520E
:101E2000E7CFD9FF1200D9CFE6FFE1CFD9FF020EED
:101E3000E126FE0EDB500C6A530F0B6E0F0E0C22C8
:101E40000BC0DEFF0CC0DDFFDECFE9FFDDCFEAFF18
:101E5000FD0EDBCFEFFFDBA407D0E66AFE0EDBCF83
:101E6000E6FF77DFE552E552FD0EDBA208D0010E5A
:101E7000E66EFE0EDBCFE6FF6CDFE552E552020EAA
:101E8000E15C02E2E16AE552E16EE552E7CFD9FF9B
:101E90001200D9CFE6FFE1CFD9FF020EE126FE0EF8
:101EA000DB5020E165C0E9FF66C0EAFFEE52080E94
:101EB000EF6E65C0E9FF66C0EAFF020EE926000E7C
:101EC000EA22200EEE6E020EED6E65C0E9FF66C0DE
:101ED000EAFF8C0EEF6E6BC0E9FF6CC0EAFF840E68
:101EE000EF6E3DD0FD0EDB50E8240D6EFE0EDB5094
:101EF000040DF3500D24040DF3CF0BF0F4CF0CF0D0
:101F0000000E0B26020E0C220BC0DEFF0CC0DDFF04
:101F1000840E0B6EDECFE9FFDDCFEAFF0B50EF1230
:101F2000FD0EDB50E8240D6EFE0EDB50040DF35069
:101F30000D24010F040DF3CF0BF0F4CF0CF0000EC5
:101F40000B26020E0C220BC0DEFF0CC0DDFF840E40
:101F50000B6EDECFE9FFDDCFEAFF0B50EF12020E72
:101F6000E15C02E2E16AE552E16EE552E7CFD9FFBA
:101F70001200D9CFE6FFE1CFD9FF020EE126FD0E18
:101F8000DB500FE0FE0EEA6ADB34FE0BEA36E96E48
:101F90006B0EE926000EEA22EECFDEFFEDCFDDFF6D
:101FA0000ED0FE0EEA6ADB34FE0BEA36E96E670EEF
:101FB000E926000EEA22EECFDEFFEDCFDDFFDECF19
:101FC000E9FFDDCFEAFF020EE926000EEA22FB0E52
:101FD000DBCFEEFFFC0EDBCFEDFFDECFE9FFDDCF89
:101FE000EAFFEE52FA0EDBCFEFFF400E0B6EDECFB4
:101FF000E9FFDDCFEAFF0B50EF16880E0B6EDECF48
:10200000E9FFDDCFEAFF0B50EF12FD0EDB500CE0D5
:10201000FE0EEA6ADB34FE0BEA36E96E6B0EE92649
:10202000000EEA22EF740BD0FE0EEA6ADB34FE0BE0
:10203000EA36E96E670EE926000EEA22EF74DECF7B
:102040000BF0DDCF0CF00BC0F3FF0CC0F4FF020E61
:10205000E15C03E200D0E16AE552E16EE552E7CFD0
:10206000D9FF1200D9CFE6FFE1CFD9FF64A84ED047
:10207000FE0EEA6ADB34FE0BEA36E96E6B0EE926E9
:10208000000EEA22EE50EFCFEAFFE96E400EEE16A8
:10209000EE6AEE6AEE6AFE0EEA6ADB34FE0BEA36A0
:1020A000E96E6B0EE926000EEA22EE50EFCFEAFF52
:1020B000E96EEE7CFE0EEA6ADB34FE0BEA36E96E70
:1020C0006B0EE926000EEA22EF74400E0B6EFE0E38
:1020D000EA6ADB34FE0BEA36E96E6B0EE926000E87
:1020E000EA22EE50EFCFEAFFE96E0B50EF16FE0E3C
:1020F000EA6ADB34FE0BEA36E96E6B0EE926000E67
:10210000EA22EE50EFCFEAFFE96EEF7CE552E7CF2F
:04211000D9FF1200E1
:0C211400DACFE4FFE2CFDAFFE652E5523A
:10212000E5CFDAFF1100D8CFE4FFE0CFE4FFE46EA3
:10213000DACFE4FFE2CFDAFFE652E552E5CFDAFF8D
:10214000E550E5CFE0FFE5CFD8FF100005D85FEC04
:1021500008F016D8FCD712000F0EC11202D80FEFEC
:1021600008F0F00E936EB00E946E7E6A7F6AF19E58
:102170007888788A788C788E00018E6B8F6B12004D
:10218000200E0001E76E6019E8AE02D0E73402D0FD
:10219000E750605D03E36450020B01E001D001D819
:1021A000120000018E518F1102E1000E08D08EC086
:1021B000E9FF8FC0EAFFEF50800B01E0010E00093C
:1021C0004BE18150100B100A01E0010E040DF3CF1A
:1021D0000CF08150200B200A01E0010EE8240B6E68
:1021E0008150400B400A01E0010E0B240C24020137
:1021F000366F8250200B200A01E0010E7F0DF3CFD5
:102200000BF08250800B01E0010E800DF3500B2487
:10221000376F8150800B800A01E0010E7F0DF3CFF4
:102220000BF08250100B01E0010E800DF3500B24D7
:10223000386F030EE66E360EE66E020EE66E010E87
:10224000E66EE66EB9EC0FF00B6E050EE15E0B501C
:10225000F3CF8EF0F4CF8FF000D0120012001200F6
:102260001200120097EF11F012001E0EE66E010E22
:10227000E66E13EC0FF0E552E552120064840001A3
:10228000080E906F070E916F9007000E915B9051B2
:102290009111FAE164941200D9CFE6FFE1CFD9FFA2
:1022A000FD0EDBCF06F0FE0EDBCF07F0720E061838
:1022B00001E1075033E0E868061802E17F0E0718D5
:1022C0002BE0740E061801E1075024E0750E061885
:1022D00001E107501DE0730E061801E1075016E0FA
:1022E000030E061801E107500FE0020E061801E187
:1022F000075008E0010E061801E1075001E010D078
:10230000B4DF0FD0B1DF0DD0ADDF0BD0A9DF09D026
:10231000A5DF07D0A4DF05D0A4DF03D0000001D0E3
:0E23200000D0010E00D0E552E7CFD9FF120029
:02232E000201AA
:1023300020511F0B010801E068D0245101E065D055
:10234000060E215D25E12351230A21E0010A11E057
:10235000030A01E01DD0000161050AE10001300E11
:10236000716F240E726F090E746F756BC00E736FF0
:102370000FD0000161050AE10001870E716F240E84
:10238000726F310E746F756BC00E736F01D000D019
:1023900002012051600BE842E842E842E842E8428C
:1023A000010801E032D021510B0A29E0080A1CE0A3
:1023B000090A14E0080A07E00B0A04E0080A01E031
:1023C00024D023D022D000019C0E716F000E726FBA
:1023D000010E746F756BC10E736F17D00001800E04
:1023E000736F23C29CF011D000019D0E716F000E1F
:1023F000726F010E746F756B810E736F06D00001E2
:0C240000800E736F22C29DF000D012000D
:04240C0012010002B7
:1024100000000008EA220300010001020001090295
:102420002900010100C0320904000002030000007D
:10243000092111010001223100070581034000013B
:102440000705010340000104030904260342006953
:1024500000740020005400720061006400650020D8
:10246000004F006E00650020004C00540044002E18
:10247000000E034D0069006E00690063006F001ECE
:102480002447244B24712405010905A101150025C9
:1024900001350045017501950305091901290381DD
:1024A000029505810105010930093126FF0046FF2B
:0824B00000750895028102C0CD
:0824B800060EF66E100EF76E21
:1024C000000EF86E00010900F550976F0900F550F5
:1024D000986F03E1976701D03DD00900F550926FE6
:1024E0000900F550936F0900F550946F0900090039
:1024F000F550E96E0900F550EA6E0900090009007F
:10250000F550956F0900F550966F09000900F6CF58
:1025100099F0F7CF9AF0F8CF9BF092C0F6FF93C0F6
:10252000F7FF94C0F8FF0001955302E1965307E0CE
:102530000900F550EE6E9507F8E29607F9D799C0B5
:10254000F6FF9AC0F7FF9BC0F8FF00019707000E47
:06255000985BBFD71200EA
:0A255600FE0EE3CFE9FFFF0EE3CF16
:10256000EAFFE9CFF3FFEACFF4FFFB0EE35003E10C
:10257000FC0EE35009E0FB0EE30602E2FC0EE3066C
:0A258000FD0EE350EE6EF1D71200DD
:06258A00000EF36E00EEEE
:1025900000F0030E01D81200EA6002D0EE6AFCD708
:0A25A000F350E9601200EE6AFCD768
:0625AA0011EE00F021EE2D
:1025B00000F0F86A0A9C5CEC12F007EC08F0A6EC5C
:0625C00010F0FBD7120031
:020000040030CA
:0100000000FF
:0100010032CC
:0100020001FC
:010003001EDE
:0100050000FA
:0100060001F8
:0100080003F4
:01000900C036
:01000A0003F2
:01000B00E014
:01000C0003F0
:01000D0040B2
:00000001FF
